:020000040800F2
:1000000038090024AD02000819B10008D1A7000882
:1000100011B100089108000821DD0008000000006F
:1000200000000000000000000000000039B50008DA
:10003000110E00080000000091B1000851B700083F
:10004000CB020008CB020008CB020008CB0200085C
:10005000CB020008CB020008CB020008CB0200084C
:10006000CB020008CB020008CB0200089908000868
:10007000CB020008CB020008CB020008CB0200082C
:10008000CB020008CB020008CB020008CB0200081C
:10009000CB020008CB020008CB020008CB0200080C
:1000A000CB020008CB020008CB020008CB020008FC
:1000B000CB020008CB020008CB020008CB020008EC
:1000C000CB020008CB020008CB020008CB020008DC
:1000D000CB020008CB020008CB02000811DD0008AB
:1000E000CB020008CB02000800000000CB02000891
:1000F000CB020008CB020008CB020008CB020008AC
:10010000CB020008CB020008CB020008CB0200089B
:10011000CB020008CB020008CB020008CB0200088B
:10012000CB020008CB020008CB020008CB0200087B
:10013000CB020008CB020008CB020008CB0200086B
:1001400000000000000000000000000000000000AF
:10015000CB020008CB020008CB020008CB0200084B
:10016000CB020008CB020008CB020008CB0200083B
:10017000CB020008CB020008CB0200080000000000
:10018000CB020008CB020008CB020008CB0200081B
:10019000CB020008CB020008CB020008CB0200080B
:1001A000CB020008CB020008CB020008CB020008FB
:1001B000CB020008CB020008CB020008CB020008EB
:1001C000CB020008CB020008CB020008CB020008DB
:1001D000CB020008CB020008CB020008CB020008CB
:1001E000CB020008CB020008CB020008CB020008BB
:1001F000CB020008CB020008CB020008CB020008AB
:10020000CB020008CB020008CB020008CB0200089A
:10021000CB020008CB020008CB020008CB0200088A
:10022000CB020008CB020008CB020008000000004F
:10023000CB020008CB02000800000000CB0200083F
:10024000CB020008CB020008CB020008CB0200085A
:10025000CB020008CB020008CB020008CB0200084A
:10026000CB020008CB020008CB020008CB0200083A
:10027000CB020008CB020008CB02000800000000FF
:10028000CB020008CB020008CB02000800000000EF
:1002900000000000CB020008DFF80CD000F07EF870
:1002A00000480047E1DF000838090024074880477C
:1002B0000748804707480047FEE7FEE7FEE7FEE7FE
:1002C000FEE7FEE7FEE7FEE7FEE7FEE7210E000899
:1002D00041B80008990200082DE9F05F05460020AA
:1002E00092469B4688460646814640241BE02846A7
:1002F00041464746224600F041F853465A46C01A46
:10030000914110D311461846224600F028F82D1AC4
:1003100067EB01084F4622460120002100F01FF83C
:1003200017EB00094E41201EA4F10104DFDC484612
:1003300031462A464346BDE8F09FD2B201E000F8BC
:10034000012B491EFBD270470022F6E710B5134679
:100350000A4604461946FFF7F0FF204610BD202A42
:1003600004DB203A00FA02F1002070479140C2F10C
:10037000200320FA03F3194390407047202A04DB3E
:10038000203A21FA02F00021704721FA02F3D0400E
:10039000C2F120029140084319467047064C074DB0
:1003A00006E0E06840F0010394E807009847103445
:1003B000AC42F6D3FFF774FF6CE100088CE1000853
:1003C00080B584B003900398006842F20001C4F243
:1003D0000201884209D0FFE70398006842F2001149
:1003E000C4F20201884209D1FFE742F20830C4F2A8
:1003F0000200006810F4403F09D129E046F20830BD
:10040000C5F60200006810F4403F21D0FFE707F076
:100410009FFD0290039840680190B0F5803F0AD09C
:10042000FFE70198B0F5003F05D0FFE70198B0F570
:10043000403F07D00AE00398C1880298B0FBF1F072
:10044000029004E002988008029000E0FFE75FE07D
:100450004FF40020002105F0B7FC0290039840689B
:100460000090B0F5802F32D0FFE70098B0F5002F54
:100470002DD0FFE70098B0F5402F28D0FFE7009877
:10048000B0F5801F23D0FFE70098B0F5A01F1ED065
:10049000FFE70098B0F5C01F19D0FFE70098B0F54E
:1004A000E01F1FD0FFE70098B0F5001F1ED0FFE748
:1004B0000098B0F5101F1DD0FFE70098B0F5201F81
:1004C0001CD0FFE70098B0F5301F1BD01EE003984A
:1004D00041686FF0010000EA51410298B0FBF1F071
:1004E000029014E002980009029010E0029840097E
:1004F00002900CE002988009029008E00298C0097E
:10050000029004E00298000A029000E0FFE7FFE793
:1005100004F08EFE41F20301884217D8FFE70298EB
:1005200042F60151C0F23111884207D3FFE7039828
:100530000168886840F48070886006E0039801686C
:10054000886820F480708860FFE743E002984008E4
:100550000290029845F61061C0F25F01884209D806
:10056000FFE703980068806820F4407003990968E9
:1005700088602EE002984BF62041C0F2BE0188420E
:100580000AD8FFE7039800688068012161F3092019
:100590000399096888601BE0029847F64001C0F2A1
:1005A0007D1188420AD8FFE703980068806802211D
:1005B00061F3092003990968886008E003980068DE
:1005C000806840F44070039909688860FFE7FFE79E
:1005D000FFE7FFE704B080BD80B58AB008900791BF
:1005E0000020059007980490089800680AF068F9C0
:1005F0000290089800680AF023F90190029828B93F
:10060000FFE70198002800F0A880FFE7089800683D
:10061000C0688001002836D5FFE70898407D012892
:1006200031D1FFE70898007D01282CD1FFE7012098
:100630000490FFE708980068006800F0400100207F
:10064000B0EB911F1AD1FFE705984DF60041C0F2BB
:100650000C0188420ED3FFE70899486D40F0100066
:1006600048650899886D40F00100886501208DF883
:10067000270076E0059801300590DBE708980168CF
:1006800040200860FFE70498022813D0FFE708988D
:1006900000680AF015F960B1FFE7089800680AF0F1
:1006A000EFF828B9FFE7089800680AF039F9FFE782
:1006B000FFE7FFE70498012813D0FFE708980068D8
:1006C0000AF0BEF860B1FFE7089800680AF0D8F8B1
:1006D00028B9FFE7089800680AF0BAF8FFE7FFE7D3
:1006E000FFE704980090022807D0FFE7009803284E
:1006F00006D1FFE70C20039005E00820039002E0FC
:1007000004200390FFE704F09BFD0690FFE70898A4
:1007100000688068039908421ED0FFE704F090FD4E
:100720000699401A062816D3FFE7089800688068E3
:10073000039908420ED0FFE70899486D40F0100079
:1007400048650899886D40F00100886501208DF8A2
:10075000270006E0FFE7DAE7FFE700208DF8270033
:10076000FFE79DF827000AB080BD000000000000F0
:1007700080B584B00290029800680AF081F8009079
:10078000029800680AF084F800284BD0FFE7009830
:10079000002847D1FFE702980068806800F00D004C
:1007A000012809D1FFE7029800680AF015F80298BD
:1007B0000168032008600DE00299486D40F01000C8
:1007C00048650299886D40F00100886501208DF828
:1007D0000F002BE004F034FD0190FFE70298006861
:1007E0008068C007E8B1FFE704F02AFD0199401ACC
:1007F000032815D3FFE7029800688068C00770B12E
:10080000FFE70299486D40F0100048650299886D35
:1008100040F00100886501208DF80F0006E0FFE739
:10082000DCE7FFE700208DF80F00FFE79DF80F00E1
:1008300004B080BD00000000704700000000000010
:1008400080B540F23400C2F20040006801F088FB3D
:1008500040F23800C2F20040006808F095FD80BD0B
:1008600080B540F21000C2F20040007808B9FFE7FE
:100870000AE040F21001C2F2004100200870FFF7C8
:10088000DFFFFFF7D9FFFFE780BD00000000000099
:10089000FFE7FEE70000000080B540F2B800C2F2BA
:1008A000004002F0E1FB80BD83B002900298016835
:1008B00001201022C4F202029142009000F0A380B5
:1008C000FFE70298016801202822C4F20202914247
:1008D000009000F09880FFE7029801680120402214
:1008E000C4F202029142009000F08D80FFE702986E
:1008F000016801205822C4F202029142009000F0E7
:100900008280FFE70298016801207022C4F202028F
:100910009142009077D0FFE7029801680120882279
:10092000C4F20202914200906DD0FFE70298016884
:100930000120A022C4F202029142009063D0FFE79E
:10094000029801680120B822C4F20202914200908C
:1009500059D0FFE702980168012040F21042C4F22A
:100960000202914200904ED0FFE7029801680120F8
:1009700040F22842C4F202029142009043D0FFE7C5
:1009800002980168012040F24042C4F20202914202
:10099000009038D0FFE702980168012040F25842E9
:1009A000C4F20202914200902DD0FFE70298016844
:1009B000012040F27042C4F202029142009022D023
:1009C000FFE702980168012040F28842C4F2020267
:1009D0009142009017D0FFE702980168012040F291
:1009E000A042C4F20202914200900CD0FFE70298AC
:1009F00000684FF64831CBF6FD710844B0FA80F03C
:100A000040090090FFE70098C00740B3FFE7029855
:100A1000007810384AF6AB21CAF6AA21A0FB0110D3
:100A200000090190019800F007014EF23C10C0F659
:100A30000000405C0299C8650198042807D3FFE7CD
:100A400002990868042262F30900886506E00299A9
:100A5000086840F2FF3290438865FFE705E002999D
:100A6000086820F0FF008865FFE70298806D03B0FA
:100A7000704700000000000084B0039003980068F5
:100A8000019003980168012045F20842C5F6020270
:100A9000914200904ED0FFE703980168012045F293
:100AA0001C42C5F602029142009043D0FFE7039832
:100AB0000168012045F23042C5F6020291420090E1
:100AC00038D0FFE703980168012045F24442C5F69B
:100AD0000202914200902DD0FFE7039801680120A7
:100AE00045F25842C5F602029142009022D0FFE73B
:100AF00003980168012045F26C42C5F6020291425A
:100B0000009017D0FFE703980168012045F280426A
:100B1000C5F60202914200900CD0FFE703980068EE
:100B20004AF66C31CAF2FD710844B0FA80F040090F
:100B30000090FFE70098C00710B3FFE70398007824
:100B400008384CF6CD41CCF6CC41A0FB0110000991
:100B50000290029945F60000C5F6020000EB810004
:100B600003990866039945F68000C5F602004866B9
:100B7000029800F01F01012088400399886635E043
:100B80000398007810384AF6AB21CAF6AA21A0FBD8
:100B9000011000090290019840F2B841C4F202012C
:100BA00088420CD8FFE7019840F21041C4F20201DC
:100BB000884204D3FFE7029808300290FFE70299C9
:100BC00040F60000C4F2020000EB810003990866C1
:100BD000039940F68000C4F202004866029800F0D3
:100BE0001F010120884003998866FFE704B0704721
:100BF00083B002900298007901900198002800F0DB
:100C00008A80FFE70198082800F28580FFE70298B4
:100C10000168012045F20842C5F6020291420090A7
:100C20004ED0FFE702980168012045F21C42C5F64C
:100C300002029142009043D0FFE702980168012030
:100C400045F23042C5F602029142009038D0FFE7EB
:100C500002980168012045F24442C5F60202914221
:100C600000902DD0FFE702980168012045F258421C
:100C7000C5F602029142009022D0FFE70298016877
:100C8000012045F26C42C5F602029142009017D055
:100C9000FFE702980168012045F28042C5F6020292
:100CA000914200900CD0FFE7029800684AF66C3140
:100CB000CAF2FD710844B0FA80F040090090FFE7E5
:100CC0000098C00780B1FFE7019945F6FC00C5F622
:100CD000020000EB81000299C866029945F64010B7
:100CE000C5F6020008670FE0019940F6FC00C4F267
:100CF000020000EB81000299C866029940F640109C
:100D0000C4F202000867FFE70198411E01208840F5
:100D100002994867FFE703B0704700000000000039
:100D200085B0049000208DF80F000498806918BBEE
:100D3000FFE70498806A029003281BD80299DFE835
:100D400001F0020D0218049890F82F00C00720B19E
:100D5000FFE701208DF80F00FFE70CE00498C06A60
:100D6000B0F1C07F04D1FFE701208DF80F00FFE74D
:100D700001E000E0FFE747E004988069B0F5005F1C
:100D800026D1FFE70498806A019003281ED80199B4
:100D9000DFE801F00206021101208DF80F0016E0D5
:100DA000049890F82F00C00720B1FFE701208DF8CC
:100DB0000F00FFE70BE00498C06AB0F1C07F04D1D8
:100DC000FFE701208DF80F00FFE700E0FFE71AE0E2
:100DD0000498806A0090032804D3FFE70098032852
:100DE00004D00EE001208DF80F000BE0049890F87D
:100DF0002F00C00720B1FFE701208DF80F00FFE7AB
:100E000000E0FFE7FFE7FFE79DF80F0005B0704740
:100E1000704700000000000072B6FFE7FEE7000028
:100E200044F60C01C5F60201086840F002000860B3
:100E3000FFE744F60400C5F60200006880040028BD
:100E400001D4FFE7F5E7704780B586B005900491BF
:100E50000598007D38BBFFE705980DF071F88DED22
:100E6000030A9DED030AB5EE400AF1EE10FA19DB14
:100E7000FFE70398049908609DED030A059890ED3B
:100E8000021AB4EE410AF1EE10FA0ADDFFE7059806
:100E90000121017505980CF0C7FF0599002008771E
:100EA000FFE7FFE753E00598007F68B9FFE7059883
:100EB000006801680020486204F0C2F90599886161
:100EC00005990120087741E004F0BAF902900298F0
:100ED00005998969401A0190019805990969884224
:100EE00033D3FFE7059800680068406A00900198D6
:100EF000A0B1FFE79DED000AB8EE400B9FED161B79
:100F000020EE010B9DED011AB8EE411B80EE010BA6
:100F1000B7EEC00B049880ED000AFFE705990020AA
:100F20000877049890ED000A059890ED031AB4EE46
:100F3000410AF1EE10FA07DAFFE705980021017582
:100F400005980CF071FFFFE7FFE7FFE7FFE706B04A
:100F500080BD00BF00BF00BF0000000000408F4008
:100F600080B5A6B02490239100208DF88B002398A3
:100F7000006808B1FFE7FFE7FFE7249890F850000A
:100F8000012804D1FFE702208DF897002DE1249974
:100F9000012081F85000FFE7FFE700201D901E9020
:100FA0002498006842F20001C4F20201884206D18E
:100FB000FFE742F20010C4F20200089002E00020B5
:100FC0000890FFE7089878B9FFE72499486D40F04A
:100FD00020004865FFE72499002081F85000FFE7D2
:100FE00001208DF8970000E1089809F071FC079046
:100FF0002498006809F06CFC002840F0E280FFE7CC
:101000000798002840F0DD80FFE724980168012060
:1010100042F20002C4F20202914206900CD0FFE7B5
:10102000249800684DF60071CBF6FD710844B0FAC3
:1010300080F040090690FFE70698C10746F20030AD
:10104000C5F6020000291CBF42F20030C4F20200C3
:1010500021902398006800285ED0FFE721988068DF
:1010600020F44040239949680843219988602498D6
:101070000168012042F20002C4F20202914205908E
:101080000CD0FFE7249800684DF60071CBF6FD7197
:101090000844B0FA80F040090590FFE70598C107C1
:1010A00046F20030C5F6020000291CBF42F20030B3
:1010B000C4F2020042F20031C4F20201884212D1AD
:1010C000FFE742F20000C4F2020009F0E9FB0390DE
:1010D00042F20010C4F2020009F0E2FB014603985C
:1010E0000843049007E046F20000C5F6020009F04C
:1010F000D7FB0490FFE7049868B9FFE72198806860
:1011000040F61F718843239A11689268114308437F
:1011100021998860FFE753E02199886820F44040D6
:10112000886024980168012042F20002C4F20202A1
:10113000914202900CD0FFE7249800684DF60071B0
:10114000CBF6FD710844B0FA80F040090290FFE749
:101150000298C10746F20030C5F6020000291CBF04
:1011600042F20030C4F2020042F20031C4F2020145
:10117000884212D1FFE742F20000C4F2020009F0F7
:101180008FFB009042F20010C4F2020009F088FBCD
:10119000014600980843019007E046F20000C5F6BA
:1011A000020009F07DFB0190FFE7019838B9FFE7E5
:1011B0002199886840F61F7290438860FFE7FFE737
:1011C00008E02499486D40F02000486501208DF822
:1011D0008B00FFE7FFE72499002081F85000FFE72C
:1011E0009DF88B008DF89700FFE79DF8970026B0DB
:1011F00080BD00000000000080B5AAB026902591B7
:1012000000208DF893002190269890F8380001284E
:1012100001D1FFE700E0FFE72698006846F20001F1
:10122000C5F60201884201D1FFE7FFE72598C068B3
:101230000021C4F2FF71884201D0FFE71EE026982A
:10124000006842F20001C4F20201884201D1FFE7C6
:10125000FFE72698006842F20011C4F202018842BA
:1012600001D1FFE7FFE72698006846F20001C5F6C6
:101270000201884201D1FFE7FFE7FFE7FFE7269879
:1012800090F85000012804D1FFE702208DF89F005C
:10129000F1E32699012081F85000FFE7FFE7269847
:1012A000006809F00DFB002840F0D183FFE7259886
:1012B000C078000600282DD4FFE7259800680003B9
:1012C00030B9FFE725980068C0F384601E9015E0F0
:1012D0002598006890FAA0F02890289820B9FFE798
:1012E00020208DF8A70005E02898B0FA80F08DF84E
:1012F000A700FFE79DF8A7001E90FFE71E9800F0EB
:101300001F01012000FA01F226980168C869104304
:10131000C861FFE72698006825990A68496809F0BE
:10132000DFFA2698006809F0CBFA2090269800682A
:1013300009F086FA1F902098002840F0B580FFE75A
:101340001F98002840F0B080FFE726980068259A93
:101350001168926809F024FB41F20000C5F60040D4
:10136000006800F07040B0F1805F0BD1FFE7259876
:10137000406926990968C96801F01C01490888403C
:101380001D901FE026980068C068C00600280BD496
:10139000FFE72598406926990968C96801F01C0192
:1013A000490888401C900AE02598406926990968F8
:1013B000C96801F01001490888401C90FFE71C989B
:1013C0001D90FFE71D98239025980069042821D0DF
:1013D000FFE72698006825990A680969239B09F0A8
:1013E0004BFB26980068259A1169527E013AB2FAA1
:1013F00082F25209D20709F05BFB26980068259A11
:101400001169127E013AB2FA82F25209D20209F04F
:101410001FFB48E026980068006E00F0F840259910
:101420000968B0EB816F07D1FFE726980168086E65
:1014300020F000400866FFE726980068406E00F044
:10144000F84025990968B0EB816F07D1FFE726982E
:101450000168486E20F000404866FFE72698006863
:10146000806E00F0F84025990968B0EB816F07D1D4
:10147000FFE726980168886E20F000408866FFE745
:1014800026980068C06E00F0F84025990968B0EB16
:10149000816F07D1FFE726980168C86E20F00040F1
:1014A000C866FFE7FFE7FFE72698006809F0F0F954
:1014B000002840F0CB82FFE726980068259A116843
:1014C000D26809F089FA2598C0680021C4F2FF713A
:1014D000884240F05781FFE7269800681B9042F24F
:1014E0000001C4F20201884240F0A480FFE7259881
:1014F00000680221C0F23041884203D1FFE7012099
:101500001A9094E0259800680421C0F66001884292
:1015100005D1FFE74020C1F62010199084E02598FE
:1015200000680821C0F69041884205D1FFE780207D
:10153000C1F65050189074E0259800681021C1F24F
:10154000C001884206D1FFE740F20010C2F28010CD
:10155000179063E0259800682021C1F2F04188428D
:1015600006D1FFE740F20020C2F2B050169052E0E0
:101570002598006840F20041C2F60021884206D159
:10158000FFE740F60000C2F63060159040E0259875
:10159000006840F60001C2F63061884206D1FFE7DC
:1015A00041F20000C3F2602014902EE025980068FC
:1015B00041F20001C3F26021884206D1FFE742F206
:1015C0000000C3F2906013901CE025980068002191
:1015D000C4F22131884205D1FFE70020C4F25270E5
:1015E00012900CE0259801680022C4F68432002095
:1015F000914204BF0020C4F6B8701290FFE7129821
:101600001390FFE713981490FFE714981590FFE7E5
:1016100015981690FFE716981790FFE717981890FF
:10162000FFE718981990FFE719981A90FFE71A98A2
:101630001190A2E02698006842F20011C4F2020163
:10164000884240F09480FFE7259800680221C0F2AC
:101650003041884203D1FFE70120109084E02598B3
:1016600000680421C0F66001884205D1FFE74020F0
:10167000C1F620100F9074E0259800680821C0F68C
:101680009041884205D1FFE78020C1F650500E906E
:1016900064E0259800681021C1F2C001884206D19B
:1016A000FFE740F20010C2F280100D9053E0259841
:1016B00000682021C1F2F041884206D1FFE740F2E4
:1016C0000020C2F2B0500C9042E02598006840F231
:1016D0000041C2F60021884206D1FFE740F6000033
:1016E000C2F630600B9030E02598006840F60001AB
:1016F000C2F63061884206D1FFE741F20000C3F232
:1017000060200A901EE02598006841F20001C3F2B3
:101710006021884206D1FFE742F20000C3F29060E8
:1017200009900CE0259801680022C4F6843200205C
:10173000914204BF0020C4F6B8700990FFE70998F1
:101740000A90FFE70A980B90FFE70B980C90FFE7D1
:101750000C980D90FFE70D980E90FFE70E980F90F4
:10176000FFE70F981090FFE71098089002E0002024
:101770000890FFE708981190FFE71B98119909F06E
:10178000DFF8FFE72598C0780006002840F15D816A
:10179000FFE726980168012042F20002C4F202022B
:1017A000914207900CD0FFE7269800684DF6007133
:1017B000CBF6FD710844B0FA80F040090790FFE7CE
:1017C0000798C10746F20030C5F6020000291CBF89
:1017D00042F20030C4F2020009F02AF82290269862
:1017E00001684FF0010042F20002C4F2020291428D
:1017F00006900CD0FFE7269800684DF60071CBF6F6
:10180000FD710844B0FA80F040090690FFE70698A1
:10181000C10746F20030C5F6020000291CBF42F2A3
:101820000030C4F2020042F20031C4F202018842E8
:1018300012D1FFE742F20000C4F2020009F028F8DA
:10184000049042F20010C4F2020009F021F80146AF
:1018500004980843059007E046F20000C5F6020030
:1018600009F016F80590FFE70598002840F0E3809E
:10187000FFE7259800680021CCF68431884255D1D5
:10188000FFE79DF88A00000600284FD4FFE726985E
:10189000006846F20001C5F60201884245D1FFE723
:1018A00026980168012042F20002C4F2020291422D
:1018B00003900CD0FFE7269800684DF60071CBF638
:1018C000FD710844B0FA80F040090390FFE70398E7
:1018D000C10746F20030C5F6020000291CBF42F2E3
:1018E0000030C4F20200229941F4000109F0A0F88E
:1018F00040F20000C2F2004000684FEA901042F649
:101900006351C0F23E51A0FB01104FEA90114FF01D
:10191000020000EB41002190FFE7219820B1FFE792
:10192000219801382190F8E7FFE783E025980068C7
:101930000021CCF25271884238D1FFE79DF88B002C
:10194000C00798BBFFE72698006846F20001C5F67D
:101950000201884229D1FFE726980168012042F25E
:101960000002C4F20202914202900CD0FFE72698D6
:1019700000684DF60071CBF6FD710844B0FA80F0B6
:1019800040090290FFE70298C10746F20030C5F611
:10199000020000291CBF42F20030C4F2020022996A
:1019A00041F0807109F044F8FFE742E025980068B3
:1019B0000021CCF6B871884239D1FFE79DF88A0042
:1019C0004006002833D4FFE72698006846F200015D
:1019D000C5F60201884229D1FFE726980168012057
:1019E00042F20002C4F20202914201900CD0FFE7E1
:1019F000269800684DF60071CBF6FD710844B0FAE8
:101A000080F040090190FFE70198C10746F20030DD
:101A1000C5F6020000291CBF42F20030C4F20200E9
:101A2000229941F4800109F003F8FFE700E0FFE7A5
:101A3000FFE7FFE708E02699486D40F02000486581
:101A400001208DF89300FFE7FFE7FFE708E0269904
:101A5000486D40F02000486501208DF89300FFE7B5
:101A6000FFE72699002081F85000FFE79DF89300DA
:101A70008DF89F00FFE79DF89F002AB080BD000011
:101A800010B58CB00A9000208DF8270006900A98B7
:101A900020B9FFE701208DF82F00D1E10A98C06836
:101AA00038B1FFE70A98007F012801D1FFE7FFE77F
:101AB000FFE70A98406D50B9FFE70A9800F0C4F9B3
:101AC0000A99002088650A9981F85000FFE70A9872
:101AD000006808F0CDFE28B1FFE70A98006808F01A
:101AE0008BFEFFE70A98006808F0E2FEE8B9FFE71E
:101AF0000A98006808F08CFE40F20000C2F2004034
:101B00000068800942F66351C0F23E51A0FB01011A
:101B1000012000EB91100690FFE7069820B1FFE747
:101B2000069801380690F8E7FFE70A98006808F081
:101B3000BFFE70B9FFE70A99486D40F01000486594
:101B40000A99886D40F00100886501208DF8270012
:101B5000FFE70A98006808F0B3FE07900A98406D06
:101B6000C006002800F15E81FFE70798002840F0DA
:101B70005981FFE70A98406D40F0020020F4807020
:101B80000A9948650A98006808F082FE002870D11A
:101B9000FFE70A980168012042F20002C4F2020243
:101BA000914203900CD0FFE70A9800684DF600714F
:101BB000CBF6FD710844B0FA80F040090390FFE7CE
:101BC0000398C10746F20030C5F6020000291CBF89
:101BD00042F20030C4F2020042F20031C4F20201CB
:101BE000884212D1FFE742F20000C4F2020008F07E
:101BF0004FFE019042F20010C4F2020008F048FECD
:101C0000014601980843029007E046F20000C5F63D
:101C1000020008F03DFE0290FFE7029840BBFFE79C
:101C20000A980168012042F20002C4F202029142C5
:101C300000900CD0FFE70A9800684DF60071CBF6D3
:101C4000FD710844B0FA80F040090090FFE7009869
:101C5000C10746F20030C5F6020000291CBF42F25F
:101C60000030C4F202000A99496808F0D1FEFFE78B
:101C7000FFE703F0DDFA41F20401884213D3FFE7E6
:101C80000A98806810280ED1FFE70A994A7D086BF0
:101C900040EA42308A681043097F40EA014040F040
:101CA0000C0008900BE00A994A7D086B40EA42302C
:101CB0008A681043097F40EA01400890FFE70A98CC
:101CC000007F01280BD1FFE70A98016A0020CFF6B8
:101CD000FE7000EB4141089808430890FFE70A981E
:101CE000406A50B1FFE70A99486A896A00F478703F
:101CF0000143089808430890FFE70A980068C06805
:101D00004CF20301CFF6F0710840089908430A9994
:101D10000968C8600A98006808F0D2FD05900A9822
:101D2000006808F08DFD04900598002859D1FFE760
:101D30000498002855D1FFE70A98017DC06A40EA5F
:101D4000813008900A980068C06844F20301884313
:101D5000089908430A990968C8600A9890F83800F9
:101D6000012829D1FFE70A98406A20B1FFE70A98C5
:101D7000806A08B9FFE7FFE70A98006800694FF634
:101D80001E01CFF6004100EA01020A9B1968DC6BD4
:101D9000D3F840E0D3F844C00020CFF6FF7000EB4A
:101DA000044040EA0E0040EA0C009B6C18431043CC
:101DB00040F00100086106E00A980168086920F017
:101DC00001000861FFE70A980068006920F0704090
:101DD0000A9A1168526B104308610A98FEF7F0FAEC
:101DE000FFE70A98C06801280CD1FFE70A9800684D
:101DF000006B20F00F000A9A11689269013A1043B3
:101E0000086306E00A980168086B20F00F00086379
:101E1000FFE70A98406D40F0010020F002000A99A7
:101E2000486508E00A99486D40F0100048650120B7
:101E30008DF82700FFE79DF827008DF82F00FFE7BA
:101E40009DF82F000CB010BD80B5BAB039900020BD
:101E50003890379036903590349004A8C021FEF722
:101E600073FA3998006842F20001C4F20201884214
:101E700071D1FFE7002005904FF400210491022169
:101E800006910C220792089109910A91C0210B91A9
:101E900020210C910D902D9004A804F0BDFD18B1E7
:101EA000FFE7FEF7B9FFFFE7FFE744F2D840C5F6CA
:101EB0000200016841F020010160006800F020008C
:101EC00003900398FFE7FFE744F2E040C5F6020005
:101ED000016841F001010160006800F0010002901A
:101EE0000298FFE7402034900320359000200090B6
:101EF00036900020C5F6020034A902F091FF009947
:101F000040F2B800C2F2004001901022C4F2020276
:101F10000260092242608160C1604FF48062026108
:101F20004FF4006242614FF400528261C16101626C
:101F3000416202F079F918B1FFE7FEF76DFFFFE7A4
:101F4000FFE7399840F2B801C2F20041C164399804
:101F50008863FFE7FFE73AB080BD000000000000A3
:101F600080B584B00290FFE7029890F850000128F5
:101F700004D1FFE702208DF80F005DE002990120F7
:101F800081F85000FFE7FFE702980321FEF724FBEA
:101F90008DF807009DF80700002842D1FFE702985E
:101FA0000068C06820F0030002990968C8600298C0
:101FB000C06C90F83500022811D1FFE70298C06C80
:101FC00000F03EF88DF807009DF8070030B1FFE7FC
:101FD0000299486D40F040004865FFE7FFE702982E
:101FE0000168486820F0100048609DF8070030B98B
:101FF000FFE70298FEF7BCFB8DF8070003E00298AC
:10200000FEF7B6FBFFE79DF8070048B9FFE7029827
:10201000406D40F0010020F4885002994865FFE7C8
:10202000FFE7FFE70299002081F85000FFE79DF8E5
:1020300007008DF80F00FFE79DF80F0004B080BD8A
:1020400080B58AB0089003F0FBF80490089828B98E
:10205000FFE701208DF8270000F0AABC089890F84F
:10206000350002280ED0FFE7089980204865FFE779
:102070000899002081F83400FFE701208DF827003F
:1020800000F096BC089800681021C4F20201884252
:1020900000F08180FFE7089800682821C4F202015F
:1020A000884278D0FFE7089800684021C4F2020116
:1020B000884270D0FFE7089800685821C4F20201F6
:1020C000884268D0FFE7089800687021C4F20201D6
:1020D000884260D0FFE7089800688821C4F20201B6
:1020E000884258D0FFE708980068A021C4F2020196
:1020F000884250D0FFE708980068B821C4F2020176
:10210000884248D0FFE70898006840F21041C4F2C6
:10211000020188423FD0FFE70898006840F228415A
:10212000C4F20201884236D0FFE70898006840F206
:102130004041C4F2020188422DD0FFE708980068B0
:1021400040F25841C4F20201884224D0FFE70898C7
:10215000006840F27041C4F2020188421BD0FFE7E0
:102160000898006840F28841C4F20201884212D007
:10217000FFE70898006840F2A041C4F202018842DB
:1021800009D0FFE70898006840F2B841C4F20201A4
:10219000884207D1FFE708980168086820F001002D
:1021A000086006E008980168086820F001000860EF
:1021B000FFE70898016801201022C4F20202914250
:1021C000039000F0A380FFE708980168012028220F
:1021D000C4F202029142039000F09880FFE7089851
:1021E000016801204022C4F202029142039000F0F3
:1021F0008D80FFE70898016801205822C4F202028E
:102200009142039000F08280FFE708980168012066
:102210007022C4F202029142039077D0FFE708983F
:10222000016801208822C4F20202914203906DD01D
:10223000FFE7089801680120A022C4F2020291423F
:10224000039063D0FFE7089801680120B822C4F228
:1022500002029142039059D0FFE7089801680120DB
:1022600040F21042C4F20202914203904ED0FFE7C6
:1022700008980168012040F22842C4F2020291420B
:10228000039043D0FFE708980168012040F24042E4
:10229000C4F202029142039038D0FFE70898016827
:1022A000012040F25842C4F20202914203902DD024
:1022B000FFE708980168012040F27042C4F2020270
:1022C0009142039022D0FFE708980168012040F274
:1022D0008842C4F202029142039017D0FFE70898A7
:1022E0000168012040F2A042C4F202029142039030
:1022F0000CD0FFE7089800684FF64831CBF6FD7127
:102300000844B0FA80F040090390FFE70398C00743
:1023100080B1FFE708980168086820F01E00086097
:1023200008980168486920F08000486108980068B2
:10233000059009E008980168086820F00E00086020
:10234000089800680590FFE70898016801201022AE
:10235000C4F202029142029000F00381FFE7089864
:10236000016801202822C4F202029142029000F08A
:10237000F880FFE70898016801204022C4F20202B9
:102380009142029000F0ED80FFE70898016801207B
:102390005822C4F202029142029000F0E280FFE76C
:1023A0000898016801207022C4F202029142029052
:1023B00000F0D780FFE70898016801208822C4F266
:1023C00002029142029000F0CC80FFE70898016879
:1023D0000120A022C4F202029142029000F0C180CA
:1023E000FFE7089801680120B822C4F20202914276
:1023F000029000F0B680FFE708980168012040F2E3
:102400001042C4F202029142029000F0AA80FFE75B
:1024100008980168012040F22842C4F20202914269
:10242000029000F09E80FFE708980168012040F2CA
:102430004042C4F202029142029000F09280FFE713
:1024400008980168012040F25842C4F20202914209
:10245000029000F08680FFE708980168012040F2B2
:102460007042C4F20202914202907AD0FFE70898CB
:102470000168012040F28842C4F2020291420290B7
:102480006FD0FFE708980168012040F2A042C4F233
:1024900002029142029064D0FFE70898016801208F
:1024A00040F2B842C4F202029142029059D0FFE7D2
:1024B00008980168012045F20842C5F602029142DF
:1024C00002904ED0FFE708980168012045F21C42B7
:1024D000C5F602029142029043D0FFE708980168D6
:1024E000012045F23042C5F602029142029038D0F6
:1024F000FFE708980168012045F24442C5F6020250
:10250000914202902DD0FFE708980168012045F222
:102510005842C5F602029142029022D0FFE7089885
:102520000168012045F26C42C5F602029142029018
:1025300017D0FFE708980168012045F28042C5F6F0
:102540000202914202900CD0FFE7089800684AF618
:102550006C31CAF2FD710844B0FA80F04009029073
:10256000FFE70298C00738B1FFE70898016E0868D6
:1025700020F480700860FFE7FFE705980068C00757
:10258000C8B1FFE702F05CFE0499401A062811D397
:10259000FFE70899202048650899032081F8350055
:1025A000FFE70899002081F83400FFE701208DF84B
:1025B0002700FDE1E1E70898016801201022C4F23C
:1025C00002029142019000F0A380FFE708980168A1
:1025D00001202822C4F202029142019000F098806A
:1025E000FFE70898016801204022C4F202029142EC
:1025F000019000F08D80FFE70898016801205822C3
:10260000C4F202029142019000F08280FFE7089834
:10261000016801207022C4F202029142019077D039
:10262000FFE70898016801208822C4F20202914263
:1026300001906DD0FFE7089801680120A022C4F244
:1026400002029142019063D0FFE7089801680120DF
:10265000B822C4F202029142019059D0FFE70898D3
:102660000168012040F21042C4F20202914201903E
:102670004ED0FFE708980168012040F22842C4F2DA
:1026800002029142019043D0FFE7089801680120BF
:1026900040F24042C4F202029142019038D0FFE77A
:1026A00008980168012040F25842C4F202029142A7
:1026B00001902DD0FFE708980168012040F2704298
:1026C000C4F202029142019022D0FFE7089801680B
:1026D000012040F28842C4F202029142019017D0D8
:1026E000FFE708980168012040F2A042C4F202020C
:1026F000914201900CD0FFE7089800684FF64831EE
:10270000CBF6FD710844B0FA80F040090190FFE774
:102710000198C00760B1FFE70898806D079008989E
:10272000C06D00F01F013F208840079988600BE0D2
:102730000898806D06900898C06D00F01F01012078
:10274000884006994860FFE7089801680120102238
:10275000C4F202029142009000F00381FFE7089862
:10276000016801202822C4F202029142009000F088
:10277000F880FFE70898016801204022C4F20202B5
:102780009142009000F0ED80FFE708980168012079
:102790005822C4F202029142009000F0E280FFE76A
:1027A0000898016801207022C4F202029142009050
:1027B00000F0D780FFE70898016801208822C4F262
:1027C00002029142009000F0CC80FFE70898016877
:1027D0000120A022C4F202029142009000F0C180C8
:1027E000FFE7089801680120B822C4F20202914272
:1027F000009000F0B680FFE708980168012040F2E1
:102800001042C4F202029142009000F0AA80FFE759
:1028100008980168012040F22842C4F20202914265
:10282000009000F09E80FFE708980168012040F2C8
:102830004042C4F202029142009000F09280FFE711
:1028400008980168012040F25842C4F20202914205
:10285000009000F08680FFE708980168012040F2B0
:102860007042C4F20202914200907AD0FFE70898C9
:102870000168012040F28842C4F2020291420090B5
:102880006FD0FFE708980168012040F2A042C4F22F
:1028900002029142009064D0FFE70898016801208D
:1028A00040F2B842C4F202029142009059D0FFE7D0
:1028B00008980168012045F20842C5F602029142DB
:1028C00000904ED0FFE708980168012045F21C42B5
:1028D000C5F602029142009043D0FFE708980168D4
:1028E000012045F23042C5F602029142009038D0F4
:1028F000FFE708980168012045F24442C5F602024C
:10290000914200902DD0FFE708980168012045F220
:102910005842C5F602029142009022D0FFE7089883
:102920000168012045F26C42C5F602029142009016
:1029300017D0FFE708980168012045F28042C5F6EC
:102940000202914200900CD0FFE7089800684AF616
:102950006C31CAF2FD710844B0FA80F04009009071
:10296000FFE70098C007A0B1FFE70898416E806EAE
:1029700048600898C06E58B1FFE70898C16E0868B3
:1029800020F4807008600898016F406F4860FFE78E
:10299000FFE70899012081F83500FFE7089900203A
:1029A00081F83400FFE7FFE700208DF82700FFE7FC
:1029B0009DF827000AB080BD80B586B004900498C9
:1029C00020B9FFE701208DF8170046E3049890F83E
:1029D0003500022807D0FFE70499802048650120D0
:1029E0008DF8170039E30498016801201022C4F221
:1029F00002029142029000F0A380FFE70498016870
:102A000001202822C4F202029142029000F0988034
:102A1000FFE70498016801204022C4F202029142BB
:102A2000029000F08D80FFE7049801680120582291
:102A3000C4F202029142029000F08280FFE7049803
:102A4000016801207022C4F202029142029077D004
:102A5000FFE70498016801208822C4F20202914233
:102A600002906DD0FFE7049801680120A022C4F213
:102A700002029142029063D0FFE7049801680120AE
:102A8000B822C4F202029142029059D0FFE70498A2
:102A90000168012040F21042C4F202029142029009
:102AA0004ED0FFE704980168012040F22842C4F2AA
:102AB00002029142029043D0FFE70498016801208E
:102AC00040F24042C4F202029142029038D0FFE745
:102AD00004980168012040F25842C4F20202914277
:102AE00002902DD0FFE704980168012040F2704267
:102AF000C4F202029142029022D0FFE704980168DA
:102B0000012040F28842C4F202029142029017D0A2
:102B1000FFE704980168012040F2A042C4F20202DB
:102B2000914202900CD0FFE7049800684FF64831BC
:102B3000CBF6FD710844B0FA80F040090290FFE73F
:102B40000298C007002800F09D80FFE70499042048
:102B500081F83500049800681021C4F2020188420F
:102B600000F08180FFE7049800682821C4F2020188
:102B7000884278D0FFE7049800684021C4F202013F
:102B8000884270D0FFE7049800685821C4F202011F
:102B9000884268D0FFE7049800687021C4F20201FF
:102BA000884260D0FFE7049800688821C4F20201DF
:102BB000884258D0FFE704980068A021C4F20201BF
:102BC000884250D0FFE704980068B821C4F202019F
:102BD000884248D0FFE70498006840F21041C4F2F0
:102BE000020188423FD0FFE70498006840F2284184
:102BF000C4F20201884236D0FFE70498006840F230
:102C00004041C4F2020188422DD0FFE704980068D9
:102C100040F25841C4F20201884224D0FFE70498F0
:102C2000006840F27041C4F2020188421BD0FFE705
:102C30000498006840F28841C4F20201884212D030
:102C4000FFE70498006840F2A041C4F20201884204
:102C500009D0FFE70498006840F2B841C4F20201CD
:102C6000884207D1FFE704980168086820F0010056
:102C7000086006E004980168086820F00100086018
:102C8000FFE7E5E1049800681021C4F202018842E0
:102C900000F08180FFE7049800682821C4F2020157
:102CA000884278D0FFE7049800684021C4F202010E
:102CB000884270D0FFE7049800685821C4F20201EE
:102CC000884268D0FFE7049800687021C4F20201CE
:102CD000884260D0FFE7049800688821C4F20201AE
:102CE000884258D0FFE704980068A021C4F202018E
:102CF000884250D0FFE704980068B821C4F202016E
:102D0000884248D0FFE70498006840F21041C4F2BE
:102D1000020188423FD0FFE70498006840F2284152
:102D2000C4F20201884236D0FFE70498006840F2FE
:102D30004041C4F2020188422DD0FFE704980068A8
:102D400040F25841C4F20201884224D0FFE70498BF
:102D5000006840F27041C4F2020188421BD0FFE7D4
:102D60000498006840F28841C4F20201884212D0FF
:102D7000FFE70498006840F2A041C4F202018842D3
:102D800009D0FFE70498006840F2B841C4F202019C
:102D9000884207D1FFE704980168086820F0010025
:102DA000086006E004980168086820F001000860E7
:102DB000FFE704980168086820F00E000860049896
:102DC000016801201022C4F202029142019000F039
:102DD0000381FFE70498016801202822C4F202025F
:102DE0009142019000F0F880FFE70498016801200B
:102DF0004022C4F202029142019000F0ED80FFE710
:102E00000498016801205822C4F202029142019004
:102E100000F0E280FFE70498016801207022C4F20C
:102E200002029142019000F0D780FFE70498016808
:102E300001208822C4F202029142019000F0CC806D
:102E4000FFE7049801680120A022C4F20202914227
:102E5000019000F0C180FFE7049801680120B822CA
:102E6000C4F202029142019000F0B680FFE704989C
:102E70000168012040F21042C4F202029142019026
:102E800000F0AA80FFE704980168012040F2284280
:102E9000C4F202029142019000F09E80FFE7049884
:102EA0000168012040F24042C4F2020291420190C6
:102EB00000F09280FFE704980168012040F2584238
:102EC000C4F202029142019000F08680FFE704986C
:102ED0000168012040F27042C4F202029142019066
:102EE0007AD0FFE704980168012040F28842C4F2DA
:102EF0000202914201906FD0FFE70498016801201F
:102F000040F2A042C4F202029142019064D0FFE775
:102F100004980168012040F2B842C4F202029142D2
:102F2000019059D0FFE704980168012045F208425A
:102F3000C5F60202914201904ED0FFE70498016865
:102F4000012045F21C42C5F602029142019043D095
:102F5000FFE704980168012045F23042C5F60202FD
:102F60009142019038D0FFE704980168012045F2B2
:102F70004442C5F60202914201902DD0FFE7049829
:102F80000168012045F25842C5F6020291420190C3
:102F900022D0FFE704980168012045F26C42C5F693
:102FA00002029142019017D0FFE7049801680120C6
:102FB00045F28042C5F60202914201900CD0FFE733
:102FC000049800684AF66C31CAF2FD710844B0FA00
:102FD00080F040090190FFE70198C00728B3FFE7A0
:102FE0000498016E086820F4807008600498806D71
:102FF00003900498C06D00F01F01012088400399E0
:1030000048600498416E806E48600498C06E58B164
:10301000FFE70498C16E086820F480700860049887
:10302000016F406F4860FFE7FFE70499012081F8D6
:103030003500FFE70499002081F83400FFE7049889
:10304000006D20B1FFE70498016D8847FFE7FFE7B7
:10305000FFE700208DF81700FFE79DF8170006B086
:1030600080BD00000000000080B590B00F900020EF
:103070000B9040F20000C2F20040006848F2B51127
:10308000C1F64E31A0FB0110800A0A900F98806DA6
:1030900009900F98806D0890099800680E90089824
:1030A00000680D900F98016801201022C4F20202FE
:1030B0009142079000F0A380FFE70F98016801207C
:1030C0002822C4F202029142079000F09880FFE7A4
:1030D0000F98016801204022C4F202029142079039
:1030E00000F08D80FFE70F98016801205822C4F29C
:1030F00002029142079000F08280FFE70F9801687A
:1031000001207022C4F202029142079077D0FFE7BB
:103110000F98016801208822C4F2020291420790B0
:103120006DD0FFE70F9801680120A022C4F20202CF
:103130009142079063D0FFE70F9801680120B82201
:10314000C4F202029142079059D0FFE70F9801683C
:10315000012040F21042C4F20202914207904ED088
:10316000FFE70F980168012040F22842C4F20202F2
:103170009142079043D0FFE70F980168012040F289
:103180004042C4F202029142079038D0FFE70F9804
:103190000168012040F25842C4F2020291420790B5
:1031A0002DD0FFE70F980168012040F27042C4F271
:1031B00002029142079022D0FFE70F980168012098
:1031C00040F28842C4F202029142079017D0FFE712
:1031D0000F980168012040F2A042C4F2020291421D
:1031E00007900CD0FFE70F9800684FF64831CBF6F8
:1031F000FD710844B0FA80F040090790FFE7079896
:10320000C007002800F01385FFE70E980F99C96DDD
:1032100001F01F01C8400007002840F1B080FFE71F
:103220000F9800681021C4F20201884200F08180EA
:10323000FFE70F9800682821C4F20201884278D085
:10324000FFE70F9800684021C4F20201884270D065
:10325000FFE70F9800685821C4F20201884268D045
:10326000FFE70F9800687021C4F20201884260D025
:10327000FFE70F9800688821C4F20201884258D005
:10328000FFE70F980068A021C4F20201884250D0E5
:10329000FFE70F980068B821C4F20201884248D0C5
:1032A000FFE70F98006840F21041C4F20201884223
:1032B0003FD0FFE70F98006840F22841C4F20201B6
:1032C000884236D0FFE70F98006840F24041C4F2D0
:1032D000020188422DD0FFE70F98006840F2584164
:1032E000C4F20201884224D0FFE70F98006840F240
:1032F0007041C4F2020188421BD0FFE70F980068BA
:1033000040F28841C4F20201884212D0FFE70F98D0
:10331000006840F2A041C4F20201884209D0FFE7F0
:103320000F98006840F2B841C4F20201884207D108
:10333000FFE70F980068006800F00400069006E0C0
:103340000F980068006800F008000690FFE70698F4
:10335000A0B1FFE70F980168086820F0040008603A
:103360000F98C06D00F01F010820884009998860FF
:103370000F99486D40F001004865FFE7FFE70E98A0
:103380000F99C96D01F01F01C840C007002800F067
:10339000A980FFE70F9800681021C4F2020188425B
:1033A00000F08180FFE70F9800682821C4F2020135
:1033B000884278D0FFE70F9800684021C4F20201EC
:1033C000884270D0FFE70F9800685821C4F20201CC
:1033D000884268D0FFE70F9800687021C4F20201AC
:1033E000884260D0FFE70F9800688821C4F202018C
:1033F000884258D0FFE70F980068A021C4F202016C
:10340000884250D0FFE70F980068B821C4F202014B
:10341000884248D0FFE70F98006840F21041C4F29C
:10342000020188423FD0FFE70F98006840F2284130
:10343000C4F20201884236D0FFE70F98006840F2DC
:103440004041C4F2020188422DD0FFE70F98006886
:1034500040F25841C4F20201884224D0FFE70F989D
:10346000006840F27041C4F2020188421BD0FFE7BD
:103470000F98006840F28841C4F20201884212D0DD
:10348000FFE70F98006840F2A041C4F202018842B1
:1034900009D0FFE70F98006840F2B841C4F202017A
:1034A000884207D1FFE70F980068406900F080006C
:1034B000059005E00F980068006800200590FFE780
:1034C000059870B1FFE70F98C06D00F01F01012053
:1034D0008840099988600F99486D40F0020048655E
:1034E000FFE7FFE70E980F99C96D01F01F01C84073
:1034F0004007002840F1A980FFE70F9800681021DD
:10350000C4F20201884200F08180FFE70F98006852
:103510002821C4F20201884278D0FFE70F980068A2
:103520004021C4F20201884270D0FFE70F98006882
:103530005821C4F20201884268D0FFE70F98006862
:103540007021C4F20201884260D0FFE70F98006842
:103550008821C4F20201884258D0FFE70F98006822
:10356000A021C4F20201884250D0FFE70F98006802
:10357000B821C4F20201884248D0FFE70F980068E2
:1035800040F21041C4F2020188423FD0FFE70F9899
:10359000006840F22841C4F20201884236D0FFE7B9
:1035A0000F98006840F24041C4F2020188422DD0D9
:1035B000FFE70F98006840F25841C4F202018842C8
:1035C00024D0FFE70F98006840F27041C4F2020176
:1035D00088421BD0FFE70F98006840F28841C4F290
:1035E0000201884212D0FFE70F98006840F2A04124
:1035F000C4F20201884209D0FFE70F98006840F248
:10360000B841C4F20201884207D1FFE70F98006871
:10361000006800F00200049005E00F980068006860
:1036200000200490FFE7049870B1FFE70F98C06D89
:1036300000F01F0104208840099988600F99486DA7
:1036400040F004004865FFE7FFE70E980F99C96D49
:1036500001F01F01C840C006002840F1DE80FFE7EE
:103660000F9800681021C4F20201884200F08180A6
:10367000FFE70F9800682821C4F20201884278D041
:10368000FFE70F9800684021C4F20201884270D021
:10369000FFE70F9800685821C4F20201884268D001
:1036A000FFE70F9800687021C4F20201884260D0E1
:1036B000FFE70F9800688821C4F20201884258D0C1
:1036C000FFE70F980068A021C4F20201884250D0A1
:1036D000FFE70F980068B821C4F20201884248D081
:1036E000FFE70F98006840F21041C4F202018842DF
:1036F0003FD0FFE70F98006840F22841C4F2020172
:10370000884236D0FFE70F98006840F24041C4F28B
:10371000020188422DD0FFE70F98006840F258411F
:10372000C4F20201884224D0FFE70F98006840F2FB
:103730007041C4F2020188421BD0FFE70F98006875
:1037400040F28841C4F20201884212D0FFE70F988C
:10375000006840F2A041C4F20201884209D0FFE7AC
:103760000F98006840F2B841C4F20201884207D1C4
:10377000FFE70F980068006800F00800039006E07B
:103780000F980068006800F004000390FFE70398BA
:10379000002841D0FFE70F98C06D00F01F011020F6
:1037A0008840099988600F980068006840030028E5
:1037B0001AD5FFE70F98006800680003002809D4B5
:1037C000FFE70F98006C20B1FFE70F98016C884766
:1037D000FFE708E00F98806C20B1FFE70F98816C3D
:1037E0008847FFE7FFE716E00F9800680068C0050C
:1037F000002807D4FFE70F980168086820F0080048
:103800000860FFE70F98006C20B1FFE70F98016C8C
:103810008847FFE7FFE7FFE7FFE70E980F99C96DBD
:1038200001F01F01C8408006002840F12681FFE713
:103830000F9800681021C4F20201884200F08180D4
:10384000FFE70F9800682821C4F20201884278D06F
:10385000FFE70F9800684021C4F20201884270D04F
:10386000FFE70F9800685821C4F20201884268D02F
:10387000FFE70F9800687021C4F20201884260D00F
:10388000FFE70F9800688821C4F20201884258D0EF
:10389000FFE70F980068A021C4F20201884250D0CF
:1038A000FFE70F980068B821C4F20201884248D0AF
:1038B000FFE70F98006840F21041C4F2020188420D
:1038C0003FD0FFE70F98006840F22841C4F20201A0
:1038D000884236D0FFE70F98006840F24041C4F2BA
:1038E000020188422DD0FFE70F98006840F258414E
:1038F000C4F20201884224D0FFE70F98006840F22A
:103900007041C4F2020188421BD0FFE70F980068A3
:1039100040F28841C4F20201884212D0FFE70F98BA
:10392000006840F2A041C4F20201884209D0FFE7DA
:103930000F98006840F2B841C4F20201884207D1F2
:10394000FFE70F980068006800F01000029006E0A2
:103950000F980068006800F002000290FFE70298EC
:10396000002800F08980FFE70F98C06D00F01F016C
:1039700020208840099988600F9890F83500042825
:1039800037D1FFE70F980168086820F0160008603B
:103990000F980168486920F0800048610F98006C1A
:1039A00020B9FFE70F98806C38B1FFE70F980168E6
:1039B000086820F008000860FFE70F98C06D00F06D
:1039C0001F013F208840099988600F99012081F8E4
:1039D0003500FFE70F99002081F83400FFE70F98CA
:1039E000006D20B1FFE70F98016D8847FFE700F0F9
:1039F00019BC0F9800680068400300281AD5FFE73B
:103A00000F98006800680003002809D5FFE70F98A9
:103A1000406C20B1FFE70F98416C8847FFE708E052
:103A20000F98C06B20B1FFE70F98C16B8847FFE785
:103A3000FFE720E00F9800680068C005002811D457
:103A4000FFE70F980168086820F0100008600F99E0
:103A5000012081F83500FFE70F99002081F834003C
:103A6000FFE7FFE70F98C06B20B1FFE70F98C16B2E
:103A70008847FFE7FFE7FFE7FFE70F98406D002863
:103A800000F0D480FFE70F98406DC007002800F0D9
:103A9000C480FFE70F99042081F835000F98006873
:103AA0001021C4F20201884200F08180FFE70F98E4
:103AB00000682821C4F20201884278D0FFE70F98FD
:103AC00000684021C4F20201884270D0FFE70F98DD
:103AD00000685821C4F20201884268D0FFE70F98BD
:103AE00000687021C4F20201884260D0FFE70F989D
:103AF00000688821C4F20201884258D0FFE70F987D
:103B00000068A021C4F20201884250D0FFE70F985C
:103B10000068B821C4F20201884248D0FFE70F983C
:103B2000006840F21041C4F2020188423FD0FFE732
:103B30000F98006840F22841C4F20201884236D052
:103B4000FFE70F98006840F24041C4F2020188424A
:103B50002DD0FFE70F98006840F25841C4F20201EF
:103B6000884224D0FFE70F98006840F27041C4F209
:103B7000020188421BD0FFE70F98006840F288419D
:103B8000C4F20201884212D0FFE70F98006840F2A9
:103B9000A041C4F20201884209D0FFE70F980068F3
:103BA00040F2B841C4F20201884207D1FFE70F9802
:103BB0000168086820F00100086006E00F980168BD
:103BC000086820F001000860FFE7FFE70B9801306C
:103BD0000B900A99884201D9FFE707E0FFE70F98A9
:103BE00000680068C0070028F0D1FFE70F98006860
:103BF0000068C00728B1FFE70F99032081F835005E
:103C000004E00F99012081F83500FFE7FFE70F99E5
:103C1000002081F83400FFE7FFE70F98C06C20B167
:103C2000FFE70F98C16C8847FFE7FFE7FAE20F98BC
:103C30000168012045F20842C5F602029142019056
:103C40004ED0FFE70F980168012045F21C42C5F6EF
:103C500002029142019043D0FFE70F9801680120D2
:103C600045F23042C5F602029142019038D0FFE79A
:103C70000F980168012045F24442C5F602029142C4
:103C800001902DD0FFE70F980168012045F25842BE
:103C9000C5F602029142019022D0FFE70F98016819
:103CA000012045F26C42C5F602029142019017D004
:103CB000FFE70F980168012045F28042C5F6020235
:103CC000914201900CD0FFE70F9800684AF66C31E2
:103CD000CAF2FD710844B0FA80F040090190FFE794
:103CE0000198C007002800F09B82FFE70F9800684A
:103CF00000680C900D980F99C96D01F01F01C84024
:103D00004007002840F1D780FFE79DF830004007CA
:103D1000002840F1D080FFE70F98C06D00F01F0130
:103D200004208840089948609DF83100000600286A
:103D300018D5FFE79DF83200C00748B1FFE70F989C
:103D4000806C20B1FFE70F98816C8847FFE708E09F
:103D50000F98006C20B1FFE70F98016C8847FFE7D0
:103D6000FFE7A7E09DF830008006002800F1998069
:103D7000FFE70F9800681021C4F20201884200F0AA
:103D80008180FFE70F9800682821C4F20201884271
:103D900078D0FFE70F9800684021C4F20201884202
:103DA00070D0FFE70F9800685821C4F202018842E2
:103DB00068D0FFE70F9800687021C4F202018842C2
:103DC00060D0FFE70F9800688821C4F202018842A2
:103DD00058D0FFE70F980068A021C4F20201884282
:103DE00050D0FFE70F980068B821C4F20201884262
:103DF00048D0FFE70F98006840F21041C4F202017A
:103E000088423FD0FFE70F98006840F22841C4F293
:103E10000201884236D0FFE70F98006840F2404127
:103E2000C4F2020188422DD0FFE70F98006840F2EB
:103E30005841C4F20201884224D0FFE70F9800687D
:103E400040F27041C4F2020188421BD0FFE70F9894
:103E5000006840F28841C4F20201884212D0FFE7B4
:103E60000F98006840F2A041C4F20201884209D0D4
:103E7000FFE70F98006840F2B841C4F2020188429F
:103E800007D1FFE70F980168086820F00800086074
:103E900006E00F980168086820F004000860FFE75A
:103EA000FFE70F98006C20B1FFE70F98016C88477F
:103EB000FFE7FFE7B3E10D980F99C96D01F01F010E
:103EC000C8408007002840F1E180FFE79DF83000FE
:103ED0008007002840F1DA80FFE70F98C06D00F0FE
:103EE0001F0102208840089948609DF831000006B3
:103EF000002818D5FFE79DF83200C00748B9FFE752
:103F00000F98406C20B1FFE70F98416C8847FFE79E
:103F100008E00F98C06B20B1FFE70F98C16B88478E
:103F2000FFE7FFE7B1E09DF830008006002800F1D0
:103F3000A380FFE70F9800681021C4F202018842B5
:103F400000F08180FFE70F9800682821C4F2020189
:103F5000884278D0FFE70F9800684021C4F2020140
:103F6000884270D0FFE70F9800685821C4F2020120
:103F7000884268D0FFE70F9800687021C4F2020100
:103F8000884260D0FFE70F9800688821C4F20201E0
:103F9000884258D0FFE70F980068A021C4F20201C0
:103FA000884250D0FFE70F980068B821C4F20201A0
:103FB000884248D0FFE70F98006840F21041C4F2F1
:103FC000020188423FD0FFE70F98006840F2284185
:103FD000C4F20201884236D0FFE70F98006840F231
:103FE0004041C4F2020188422DD0FFE70F980068DB
:103FF00040F25841C4F20201884224D0FFE70F98F2
:10400000006840F27041C4F2020188421BD0FFE711
:104010000F98006840F28841C4F20201884212D031
:10402000FFE70F98006840F2A041C4F20201884205
:1040300009D0FFE70F98006840F2B841C4F20201CE
:10404000884207D1FFE70F980168086820F0140044
:10405000086006E00F980168086820F00A00086010
:10406000FFE70F99012081F83500FFE70F99002045
:1040700081F83400FFE7FFE70F98C06B20B1FFE73E
:104080000F98C16B8847FFE7FFE7C7E00D980F99CE
:10409000C96D01F01F01C8400007002840F1BC8035
:1040A000FFE79DF830000007002840F1B580FFE7EA
:1040B0000F9800681021C4F20201884200F081804C
:1040C000FFE70F9800682821C4F20201884278D0E7
:1040D000FFE70F9800684021C4F20201884270D0C7
:1040E000FFE70F9800685821C4F20201884268D0A7
:1040F000FFE70F9800687021C4F20201884260D087
:10410000FFE70F9800688821C4F20201884258D066
:10411000FFE70F980068A021C4F20201884250D046
:10412000FFE70F980068B821C4F20201884248D026
:10413000FFE70F98006840F21041C4F20201884284
:104140003FD0FFE70F98006840F22841C4F2020117
:10415000884236D0FFE70F98006840F24041C4F231
:10416000020188422DD0FFE70F98006840F25841C5
:10417000C4F20201884224D0FFE70F98006840F2A1
:104180007041C4F2020188421BD0FFE70F9800681B
:1041900040F28841C4F20201884212D0FFE70F9832
:1041A000006840F2A041C4F20201884209D0FFE752
:1041B0000F98006840F2B841C4F20201884207D16A
:1041C000FFE70F980168086820F01C00086006E00F
:1041D0000F980168086820F00E000860FFE70F984C
:1041E000C06D00F01F01012000FA01F1089A516032
:1041F0000F9948650F9981F83500FFE70F99002066
:1042000081F83400FFE70F98C06C20B1FFE70F98EA
:10421000C16C8847FFE700E0FFE7FFE7FFE700E04A
:10422000FFE7FFE710B080BD80B58EB00C9001F0C5
:1042300007F80A900C9828B9FFE701208DF837009D
:1042400000F09FBC0C98016801201022C4F2020209
:104250009142079000F0A380FFE70C9801680120CD
:104260002822C4F202029142079000F09880FFE7F2
:104270000C98016801204022C4F20202914207908A
:1042800000F08D80FFE70C98016801205822C4F2ED
:1042900002029142079000F08280FFE70C980168CB
:1042A00001207022C4F202029142079077D0FFE70A
:1042B0000C98016801208822C4F202029142079002
:1042C0006DD0FFE70C9801680120A022C4F2020221
:1042D0009142079063D0FFE70C9801680120B82253
:1042E000C4F202029142079059D0FFE70C9801688E
:1042F000012040F21042C4F20202914207904ED0D7
:10430000FFE70C980168012040F22842C4F2020243
:104310009142079043D0FFE70C980168012040F2DA
:104320004042C4F202029142079038D0FFE70C9855
:104330000168012040F25842C4F202029142079003
:104340002DD0FFE70C980168012040F27042C4F2C2
:1043500002029142079022D0FFE70C9801680120E9
:1043600040F28842C4F202029142079017D0FFE760
:104370000C980168012040F2A042C4F2020291426E
:1043800007900CD0FFE70C9800684FF64831CBF649
:10439000FD710844B0FA80F040090790FFE70798E4
:1043A000C007002800F07881FFE70C98406A08B148
:1043B000FFE7FFE70C99022081F83500FFE70C9931
:1043C000002081F83400FFE70C9800681021C4F247
:1043D0000201884200F08180FFE70C9800682821E4
:1043E000C4F20201884278D0FFE70C9800684021AF
:1043F000C4F20201884270D0FFE70C98006858218F
:10440000C4F20201884268D0FFE70C98006870216E
:10441000C4F20201884260D0FFE70C98006888214E
:10442000C4F20201884258D0FFE70C980068A0212E
:10443000C4F20201884250D0FFE70C980068B8210E
:10444000C4F20201884248D0FFE70C98006840F2AD
:104450001041C4F2020188423FD0FFE70C98006887
:1044600040F22841C4F20201884236D0FFE70C989E
:10447000006840F24041C4F2020188422DD0FFE7BB
:104480000C98006840F25841C4F20201884224D0DE
:10449000FFE70C98006840F27041C4F202018842C4
:1044A0001BD0FFE70C98006840F28841C4F202017B
:1044B000884212D0FFE70C98006840F2A041C4F295
:1044C0000201884209D0FFE70C98006840F2B84129
:1044D000C4F20201884207D1FFE70C98016808681E
:1044E00020F00100086006E00C980168086820F0E0
:1044F00001000860FFE7FFE70C9800680068C0074C
:1045000098B1FFE700F09CFE0A99401A06280BD3E9
:10451000FFE70C99202048650C99032081F83500AD
:1045200001208DF837002CE3E6E70C98006800685E
:104530000B900B9848F23F01CFF6106108400B90AA
:104540000C998868D1F80CC00B694A6940EA0C00E4
:10455000184310438A691043CA691043096A01432A
:104560000B9808430B900C98406A042808D1FFE789
:104570000C99C86A096B01430B9808430B90FFE73D
:1045800041F20000C5F6004000684FF6FF71884315
:10459000B0F1005F3FD3FFE70C984068292807D3AC
:1045A000FFE70C98416801202F2906902AD3FFE7E6
:1045B0000C9840683F2807D3FFE70C98416801201A
:1045C000432906901ED3FFE70C984068472807D37D
:1045D000FFE70C98416801204929069012D3FFE7B4
:1045E0000C98416800204F29059008D3FFE70C98EC
:1045F00041680020532938BF01200590FFE7059846
:104600000690FFE70698C00728B1FFE70B9840F433
:1046100080100B90FFE70B980C99096808600C98C4
:10462000006840690B900B9820F007000B900C98E5
:10463000416A0B9808430B900C98406A04281AD1E1
:10464000FFE70C98816A0B9808430B900C98C06A9E
:1046500080B1FFE70C98FCF763FB50B1FFE70C99C2
:10466000402048650C99012081F835008DF837000D
:1046700087E2FFE7FFE70B980C99096848610C98FF
:10468000FCF712F909900C98C06D00F01F013F2053
:1046900088400999886027E10C980168012045F25B
:1046A0000842C5F60202914204904ED0FFE70C98F2
:1046B0000168012045F21C42C5F6020291420490B5
:1046C00043D0FFE70C980168012045F23042C5F65F
:1046D00002029142049038D0FFE70C980168012053
:1046E00045F24442C5F60202914204902DD0FFE704
:1046F0000C980168012045F25842C5F60202914229
:10470000049022D0FFE70C980168012045F26C422A
:10471000C5F602029142049017D0FFE70C98016899
:10472000012045F28042C5F60202914204900CD06D
:10473000FFE70C9800684AF66C31CAF2FD71084434
:10474000B0FA80F040090490FFE70498C007002801
:1047500000F0BE80FFE70C980168012045F2084296
:10476000C5F60202914203904ED0FFE70C98016813
:10477000012045F21C42C5F602029142039043D04B
:10478000FFE70C980168012045F23042C5F60202AD
:104790009142039038D0FFE70C980168012045F260
:1047A0004442C5F60202914203902DD0FFE70C98D7
:1047B0000168012045F25842C5F602029142039079
:1047C00022D0FFE70C980168012045F26C42C5F643
:1047D00002029142039017D0FFE70C980168012074
:1047E00045F28042C5F60202914203900CD0FFE7E9
:1047F0000C9800684AF66C31CAF2FD710844B0FAB0
:1048000080F040090390FFE70398C00708B1FFE775
:10481000FFE70C99022081F83500FFE70C99002092
:1048200081F83400FFE70C98006800680B900B9843
:104830006FF310100B900C988068402803D1FFE7AD
:104840001020029008E00C9880688038B0FA80F060
:10485000400980030290FFE702980C99D1F80CE020
:10486000D1F810C04B698A6940EADE0040EADC00FA
:1048700040EAD30040EAD200CA6940EAD200096A9D
:1048800040EA11110B9808430B900B980C9909689A
:1048900008600C9908684AF6F832CAF2FD721044B2
:1048A0004CF6CD42CCF6CC42A0FB02026FF00300E6
:1048B00000EA9200C8650C98FBF7F6FF08900C9888
:1048C000C06D00F01F0101208840089948600AE08F
:1048D0000C99402048650C99032081F8350001208F
:1048E0008DF837004DE1FFE70C9801680120102298
:1048F000C4F202029142019000F00381FFE70C989C
:10490000016801202822C4F202029142019000F0C5
:10491000F880FFE70C98016801204022C4F20202EF
:104920009142019000F0ED80FFE70C9801680120B2
:104930005822C4F202029142019000F0E280FFE7A7
:104940000C98016801207022C4F202029142019089
:1049500000F0D780FFE70C98016801208822C4F29C
:1049600002029142019000F0CC80FFE70C980168B0
:104970000120A022C4F202029142019000F0C18005
:10498000FFE70C9801680120B822C4F202029142AC
:10499000019000F0B680FFE70C980168012040F21A
:1049A0001042C4F202029142019000F0AA80FFE797
:1049B0000C980168012040F22842C4F202029142A0
:1049C000019000F09E80FFE70C980168012040F202
:1049D0004042C4F202029142019000F09280FFE74F
:1049E0000C980168012040F25842C4F20202914240
:1049F000019000F08680FFE70C980168012040F2EA
:104A00007042C4F20202914201907AD0FFE70C9802
:104A10000168012040F28842C4F2020291420190F2
:104A20006FD0FFE70C980168012040F2A042C4F269
:104A300002029142019064D0FFE70C9801680120C6
:104A400040F2B842C4F202029142019059D0FFE70D
:104A50000C980168012045F20842C5F60202914215
:104A600001904ED0FFE70C980168012045F21C42EE
:104A7000C5F602029142019043D0FFE70C9801680D
:104A8000012045F23042C5F602029142019038D031
:104A9000FFE70C980168012045F24442C5F6020286
:104AA000914201902DD0FFE70C980168012045F25A
:104AB0005842C5F602029142019022D0FFE70C98BD
:104AC0000168012045F26C42C5F602029142019054
:104AD00017D0FFE70C980168012045F28042C5F627
:104AE0000202914201900CD0FFE70C9800684AF650
:104AF0006C31CAF2FD710844B0FA80F040090190AF
:104B0000FFE70198C00790B3FFE70C98FBF7B4FFED
:104B10000C988068802804D1FFE70C990020486039
:104B2000FFE70C990879096E08600C98416E806E59
:104B300048600C98406888B1FFE70C9840680828E6
:104B40000CD8FFE70C98FCF753F80C98C16E0020C6
:104B500008600C98016F406F486007E00C990020D6
:104B6000C8660C9908670C994867FFE7FFE70C993E
:104B7000002048650C9A012182F835108DF8370025
:104B8000FFE79DF837000EB080BD00000000000078
:104B900080B584B0039000F053FB0290039801901D
:104BA0000198013048B1FFE740F20800C2F200402E
:104BB0000178019808440190FFE7FFE700F040FB0F
:104BC0000299401A0199884201D2FFE7F6E704B042
:104BD00080BD00000000000090B00F900E910020FA
:104BE0000D908020C5F600000A90FFE70E980D9901
:104BF000C840002800F01181FFE70E980D9A0121AE
:104C0000914008400C900C98002800F00281FFE7CA
:104C10000D9820F0030040F20841C5F6000140580D
:104C20000B900D9800F0030081000F2000FA01F1B5
:104C30000B9808400B900B9809900F980021C5F62F
:104C40000201884203D1FFE7002008907AE00F9824
:104C500040F20041C5F60201884203D1FFE701207E
:104C600007906CE00F9840F60001C5F602018842FB
:104C700003D1FFE7022006905EE00F9840F6004166
:104C8000C5F60201884203D1FFE70320059050E0FA
:104C90000F9841F20001C5F60201884203D1FFE7F7
:104CA0000420049042E00F9841F20041C5F6020151
:104CB000884203D1FFE70520039034E00F9841F6C6
:104CC0000001C5F60201884203D1FFE706200290E9
:104CD00026E00F9841F60041C5F60201884203D153
:104CE000FFE70720019018E00F9842F20001C5F697
:104CF0000201884203D1FFE7082000900AE00F99E3
:104D000042F20042C5F602020A20914208BF092081
:104D10000090FFE700980190FFE701980290FFE7FD
:104D200002980390FFE703980490FFE7049805902A
:104D3000FFE705980690FFE706980790FFE70798BA
:104D40000890FFE7099808990D9A02F00302920073
:104D5000914088422AD1FFE70C9A0A99086890434B
:104D600008600C9A0A994868904348600C9A04219C
:104D7000C5F600010868904308600C9A4FF0B041F6
:104D80000868904308600D9800F0030081000F2030
:104D900088400B900B9B0D9820F0030140F20842D5
:104DA000C5F60002885898438850FFE70D984100E7
:104DB000032000FA01F30F9A116819431160DDF81E
:104DC00034C00CF007018A000F2101FA02F30F9999
:104DD0006FF0030202EA5C020A44116A994311620D
:104DE0000D99490000FA01F30F9AD1689943D160F7
:104DF0000D9A012101FA02F30F9A5168994351600B
:104E00000D99490000FA01F20F9988689043886073
:104E1000FFE70D9801300D90E8E610B070470000F4
:104E200090B00F900E9100200D908020C5F60000EC
:104E30000A90FFE70E9800680D99C840002800F01E
:104E4000DB81FFE70E9800680D9A01219140084030
:104E50000C900C98002800F0CB81FFE70E9840687A
:104E600000F00300012807D0FFE70E98406800F02B
:104E7000030002282FD1FFE70F9880680B900D9850
:104E80004100032000FA01F10B9888430B900E9823
:104E9000C0680D99490000FA01F10B9808430B9086
:104EA0000B980F9988600F9840680B900D9901201E
:104EB00000FA01F10B9888430B900E984068C0F3FC
:104EC00000100D9900FA01F10B9808430B900B9814
:104ED0000F994860FFE70E98406800F00300032830
:104EE0000CD1FFE70E98406800F0030003281DD1A5
:104EF000FFE70E988068012818D0FFE70F98C06878
:104F00000B900D984100032000FA01F10B988843A3
:104F10000B900E9880680D99490000FA01F10B98EA
:104F200008430B900B980F99C860FFE70E984068F4
:104F300000F00300022826D1FFE70F980D996FF0CB
:104F4000030202EA51010844006A0B900D9800F038
:104F5000070081000F2000FA01F10B9888430B90A5
:104F60000E9800690D9901F00701890000FA01F11E
:104F70000B9808430B900B980F990D9B02EA530274
:104F800011440862FFE70F9800680B900D984100EC
:104F9000032000FA01F10B9888430B900E984068AB
:104FA00000F003000D99490000FA01F10B98084345
:104FB0000B900B980F9908600E9880798007002855
:104FC00000F01581FFE7FFE744F2F440C5F6020068
:104FD000016841F002010160006800F002000990E0
:104FE0000998FFE70D9820F0030040F20841C5F64C
:104FF000000140580B900D9800F0030081000F2035
:1050000000FA01F10B9888430B900F980021C5F628
:105010000201884203D1FFE7002008907AE00F9850
:1050200040F20041C5F60201884203D1FFE70120AA
:1050300007906CE00F9840F60001C5F60201884227
:1050400003D1FFE7022006905EE00F9840F6004192
:10505000C5F60201884203D1FFE70320059050E026
:105060000F9841F20001C5F60201884203D1FFE723
:105070000420049042E00F9841F20041C5F602017D
:10508000884203D1FFE70520039034E00F9841F6F2
:105090000001C5F60201884203D1FFE70620029015
:1050A00026E00F9841F60041C5F60201884203D17F
:1050B000FFE70720019018E00F9842F20001C5F6C3
:1050C0000201884203D1FFE7082000900AE00F990F
:1050D00042F20042C5F602020A20914208BF0920AE
:1050E0000090FFE700980190FFE701980290FFE72A
:1050F00002980390FFE703980490FFE70498059057
:10510000FFE705980690FFE706980790FFE70798E6
:105110000890FFE708980D9901F00301890000FA53
:1051200001F10B9808430B900B980D9921F00301A6
:1051300040F20842C5F6000288504FF0B0400068C7
:105140000B900C990B9888430B900E988079C006B1
:10515000002805D5FFE70C990B9808430B90FFE753
:105160000B984FF0B04108600420C5F600000068BD
:105170000B900C990B9888430B900E9880798006C1
:10518000002805D5FFE70C990B9808430B90FFE723
:105190000B980421C5F6000108600A9840680B903E
:1051A0000C990B9888430B900E9880798007002803
:1051B00005D5FFE70C990B9808430B90FFE70B9878
:1051C0000A9948600A9800680B900C990B988843DC
:1051D0000B900E988079C00728B1FFE70C990B98C7
:1051E00008430B90FFE70B980A990860FFE7FFE779
:1051F0000D9801300D901DE610B0704700000000C2
:1052000082B00190ADF802108DF801209DF80100E8
:1052100028B1FFE7BDF802000199886105E0BDF8FB
:105220000200000401998861FFE702B070470000A6
:1052300041F20000C5F600400068000C7047000015
:1052400040F23450C2F20040006870470000000095
:1052500040F20800C2F20040027840F23451C2F23B
:10526000004108681044086070470000000000001A
:1052700080B582B0032000F02FF902F0BDFE44F2A9
:105280001842C5F602021168C1F303234EF22C1135
:10529000C0F60001CB5C03F01F03D84000900098DB
:1052A000126802F00F02895C01F01F01C84040F251
:1052B0000401C2F200410860009840F20001C2F20D
:1052C000004108600F2000F013F820B1FFE7012033
:1052D0008DF8070005E000F0BBF800208DF807000E
:1052E000FFE79DF8070002B080BD0000000000004D
:1052F00080B582B0009040F20800C2F20040007811
:1053000020B9FFE701208DF8070030E040F20000EF
:10531000C2F20040006840F20801C2F200410A787F
:105320004FF47A71B1FBF2F1B0FBF1F003F098FDAC
:1053300020B1FFE701208DF8070018E000980F2842
:105340000DD8FFE700994FF0FF30002200F0ACF8D5
:10535000009840F20C01C2F20041086003E0012015
:105360008DF8070003E000208DF80700FFE79DF8A7
:10537000070002B080BD000010B581B00090009819
:1053800040784EF69851CEF2000108604EF6A051DA
:10539000CEF20001086820F0010008600098406823
:1053A0004EF69C52CEF200021060DDF800E09EF84E
:1053B0000C0000079EF80B2040EA02609EF80020D7
:1053C0009EF808309EF809C09EF80A4040EAC440A2
:1053D0009EF80D4040EA84409EF80E4040EA44406A
:1053E0009EF80FE040EA0E4040EA0C2040EA4300FD
:1053F0001043086001B010BDBFF35F8F4EF624511B
:10540000CEF20001086820F4803008604EF6945116
:10541000CEF200010020086070470000000000008C
:1054200081B00090009840F001004EF69451CEF209
:10543000000108604EF62451CEF20001086840F4E5
:1054400080300860BFF34F8FBFF36F8F01B070479C
:1054500081B0FFE744F2F440C5F60200016841F074
:1054600002010160006800F0020000900098FFE770
:1054700001B070470000000080B582B0ADF80600B2
:10548000BDF9060008F050FC02B080BD000000002D
:1054900080B582B0ADF80600BDF9060008F060FCEA
:1054A00002B080BD0000000080B586B0ADF81600E7
:1054B0000491039208F06CFC0290BDF91600019073
:1054C00002980499039A05F02BFE0146019808F012
:1054D00067FC06B080BD000080B582B001900198E5
:1054E00008F082FC02B080BD80B584B0029044F622
:1054F0000C00C5F60200006800F004010020B0EBCB
:10550000910F13D1FFE744F60C00C5F602000068C6
:1055100000F007000299884204D0FFE701208DF8CF
:105520000F002EE000208DF80F002AE044F60C0159
:10553000C5F60201086820F00700029A10430860CF
:10554000FFF77EFE0190FFE744F60400C5F6020077
:10555000006800F400510020B0EB513F0DD1FFE78F
:10556000FFF76EFE0199401AB0F57A7F04D9FFE784
:1055700001208DF80F0004E0E6E700208DF80F0011
:10558000FFE79DF80F0004B080BD000000000000A0
:1055900080B502F0DDFC44F22041C5F60201096845
:1055A000C1F302124EF22C11C0F60001895C01F029
:1055B0001F01C84080BD000088B0079044F2284019
:1055C000C5F60200016801F0030106910068C0F30E
:1055D0000510059044F22C40C5F60200006800F06A
:1055E00001000490049844F23441C5F602010968B0
:1055F00089B2C908484300EE100AB8EE400A8DEDA2
:10560000020A0598002800F01B81FFE70698009029
:1056100048B1FFE70098012869D0FFE70098022809
:1056200000F08980ABE044F20040C5F6020000685B
:1056300000F020010020B0EB511F33D0FFE744F20F
:105640000040C5F602000068C0F3C10149F2000045
:10565000C0F2D030C84003909DED030AB8EE400A76
:105660009DED051AB8EE411A80EE010A44F2304071
:10567000C5F6020000686FF35F2001EE100AB8EE75
:10568000411A9DED022A9FED743A82EE032A31EE13
:10569000021AB7EE002A31EE021A20EE010A8DED51
:1056A000010A23E09DED050AB8EE401A9FED6C0A51
:1056B00080EE010A44F23040C5F6020000686FF344
:1056C0005F2001EE100AB8EE411A9DED022A9FED0F
:1056D000623A82EE032A31EE021AB7EE002A31EE68
:1056E000021A20EE010A8DED010AFFE76BE09DED45
:1056F000050AB8EE401A9FED590A80EE010A44F2FD
:105700003040C5F6020000686FF35F2001EE100A1A
:10571000B8EE411A9DED022A9FED4F3A82EE032A20
:1057200031EE021AB7EE002A31EE021A20EE010A1B
:105730008DED010A47E09DED050AB8EE401A9FED98
:10574000450A80EE010A44F23040C5F602000068C6
:105750006FF35F2001EE100AB8EE411A9DED022AA8
:105760009FED3D3A82EE032A31EE021AB7EE002A8F
:1057700031EE021A20EE010A8DED010A23E09DEDC3
:10578000050AB8EE401A9FED360A80EE010A44F28F
:105790003040C5F6020000686FF35F2001EE100A8A
:1057A000B8EE411A9DED022A9FED2B3A82EE032AB4
:1057B00031EE021AB7EE002A31EE021A20EE010A8B
:1057C0008DED010AFFE79DED010A44F23040C5F678
:1057D0000200016889B2490A01EE101AB8EE411AB6
:1057E000B7EE002A31EE021A80EE010A0799BCEEEC
:1057F000C00A81ED000A9DED010A0168C1F306416E
:1058000001EE101AB8EE411A31EE021A80EE010ACA
:105810000799BCEEC00A81ED010A9DED010A0068FE
:10582000C0F3066001EE100AB8EE411A31EE021A1A
:1058300080EE010A0798BCEEC00A80ED020A07E07C
:105840000799002008600799486007998860FFE77A
:1058500008B0704720BCBE4B000000460024744ACC
:105860000024744C0000000088B0079044F22840E7
:10587000C5F60200016801F0030106910068C0F35B
:105880000530059044F22C40C5F602000068C0F3D4
:1058900000100490049844F23C41C5F602010968E6
:1058A00089B2C908484300EE100AB8EE400A8DEDEF
:1058B000020A0598002800F01B81FFE70698009077
:1058C00048B1FFE70098012869D0FFE70098022857
:1058D00000F08980ABE044F20040C5F602000068A9
:1058E00000F020010020B0EB511F33D0FFE744F25D
:1058F0000040C5F602000068C0F3C10149F2000093
:10590000C0F2D030C84003909DED030AB8EE400AC3
:105910009DED051AB8EE411A80EE010A44F23840B6
:10592000C5F6020000686FF35F2001EE100AB8EEC2
:10593000411A9DED022A9FED743A82EE032A31EE60
:10594000021AB7EE002A31EE021A20EE010A8DED9E
:10595000010A23E09DED050AB8EE401A9FED6C0A9E
:1059600080EE010A44F23840C5F6020000686FF389
:105970005F2001EE100AB8EE411A9DED022A9FED5C
:10598000623A82EE032A31EE021AB7EE002A31EEB5
:10599000021A20EE010A8DED010AFFE76BE09DED92
:1059A000050AB8EE401A9FED590A80EE010A44F24A
:1059B0003840C5F6020000686FF35F2001EE100A60
:1059C000B8EE411A9DED022A9FED4F3A82EE032A6E
:1059D00031EE021AB7EE002A31EE021A20EE010A69
:1059E0008DED010A47E09DED050AB8EE401A9FEDE6
:1059F000450A80EE010A44F23840C5F6020000680C
:105A00006FF35F2001EE100AB8EE411A9DED022AF5
:105A10009FED3D3A82EE032A31EE021AB7EE002ADC
:105A200031EE021A20EE010A8DED010A23E09DED10
:105A3000050AB8EE401A9FED350A80EE010A44F2DD
:105A40003840C5F6020000686FF35F2001EE100ACF
:105A5000B8EE411A9DED022A9FED2B3A82EE032A01
:105A600031EE021AB7EE002A31EE021A20EE010AD8
:105A70008DED010AFFE79DED010A44F23840C5F6BD
:105A80000200016889B2490A01EE101AB8EE411A03
:105A9000B7EE002A31EE021A80EE010A0799BCEE39
:105AA000C00A81ED000A9DED010A0168C1F30641BB
:105AB00001EE101AB8EE411A31EE021A80EE010A18
:105AC0000799BCEEC00A81ED010A9DED010A00684C
:105AD000C0F3066001EE100AB8EE411A31EE021A68
