:020000040800F2
:10000000B03D0124AD020008297B000801750008FD
:10001000217B0008210E0008D99B00080000000089
:10002000000000000000000000000000E97E000861
:100030002113000800000000317B0008298100081E
:10004000CB020008CB020008CB020008CB0200085C
:10005000CB020008CB020008CB020008CB0200084C
:10006000CB020008CB020008CB020008890E000872
:10007000990E0008A90E0008B90E0008C90E000864
:10008000CB020008CB020008CB020008CB0200081C
:10009000CB020008CB020008CB020008CB0200080C
:1000A000CB020008CB020008CB020008CB020008FC
:1000B000CB020008CB020008CB020008CB020008EC
:1000C000CB020008CB020008CB020008CB020008DC
:1000D000CB020008CB020008CB020008C99B000835
:1000E000CB020008CB02000800000000CB02000891
:1000F000CB020008CB020008CB020008CB020008AC
:10010000CB020008CB020008CB020008CB0200089B
:10011000CB020008CB020008CB020008CB0200088B
:10012000CB020008CB020008CB020008CB0200087B
:10013000CB020008CB020008CB020008CB0200086B
:1001400000000000000000000000000000000000AF
:10015000CB020008CB020008CB020008CB0200084B
:10016000CB020008CB020008CB020008CB0200083B
:10017000CB020008CB020008CB0200080000000000
:10018000CB020008CB020008CB020008CB0200081B
:10019000CB020008CB020008CB020008CB0200080B
:1001A000CB020008CB020008CB020008CB020008FB
:1001B000CB020008CB020008CB020008CB020008EB
:1001C000CB020008CB020008CB020008CB020008DB
:1001D000CB020008CB020008CB020008CB020008CB
:1001E000CB020008CB020008CB020008CB020008BB
:1001F000CB020008CB020008CB020008CB020008AB
:10020000CB020008CB020008CB020008CB0200089A
:10021000CB020008CB020008CB020008CB0200088A
:10022000CB020008CB020008CB020008000000004F
:10023000CB020008CB02000800000000CB0200083F
:10024000CB020008CB020008CB020008CB0200085A
:10025000CB020008CB020008CB020008CB0200084A
:10026000CB020008CB020008CB020008CB0200083A
:10027000CB020008CB020008CB02000800000000FF
:10028000CB020008CB020008CB02000800000000EF
:1002900000000000CB020008DFF80CD000F0C2FA2A
:1002A0000048004731A90008B03D012407488047B5
:1002B0000748804707480047FEE7FEE7FEE7FEE7FE
:1002C000FEE7FEE7FEE7FEE7FEE7FEE73113000884
:1002D00009820008990200082DE9F05F0546002018
:1002E00092469B4688460646814640241BE02846A7
:1002F00041464746224600F06BF853465A46C01A1C
:10030000914110D311461846224600F052F82D1A9A
:1003100067EB01084F4622460120002100F049F812
:1003200017EB00094E41201EA4F10104DFDC484612
:1003300031462A464346BDE8F09FD2B201E000F8BC
:10034000012B491EFBD270470022F6E710B5134679
:100350000A4604461946FFF7F0FF204610BD421C2E
:1003600010F8011B0029FBD1801A704730B50446F4
:100370000020034600E05B1C934203D2E05CCD5CAE
:10038000401BF8D030BD30B50B460146002020227E
:10039000012409E021FA02F59D4205D303FA02F592
:1003A000491B04FA02F52844151EA2F10102F1DCF2
:1003B00030BD202A04DB203A00FA02F10020704709
:1003C0009140C2F1200320FA03F319439040704793
:1003D000202A04DB203A21FA02F00021704721FA9A
:1003E00002F3D040C2F12002914008431946704701
:1003F0000029A8BF7047401C490008BF20F0010039
:10040000704710B4B0FA80FC00FA0CF050EA010416
:1004100004BF10BC704749B1CCF1200421FA04F4A8
:1004200011FA0CF118BF012121430843A3EB0C0181
:10043000CB1D4FEA00614FEA102042BF002010BCE4
:10044000704700EBC35010440029A4BF10BC704794
:10045000401C490008BF20F0010010BC7047F0B4F8
:1004600000F0004221F0004120F00040CE0DC30D0D
:10047000C1F3160141F40001C0F316004C421546C9
:1004800040F40000761E09E010EB440002D582F033
:10049000004240428842F7D840005B1EB342F9DA7E
:1004A00018B1F0BC0021FFF7ACBF2846F0BC704784
:1004B0002DE9FE4F804681EA0300C00F0C460090F4
:1004C00021F0004123F00045B8EB0200A94105D21C
:1004D0004046214690461C460B46024623F000400B
:1004E000104347D0270DC7F30A00C3F30A51029007
:1004F000401A019040286BDAC3F3130040F4801BCC
:100500000098924620B10023D2EB030A63EB0B0B59
:1005100001985946C0F140025046FFF74AFF06468F
:100520000D4650465946019A00F08EF910EB08002E
:100530006141002487EA115284EAE7731A4340D0EC
:10054000009A62B3019A012A4FEA075215DC001B98
:1005500061EB02014FF0004202EA0752CDE900428E
:10056000001C41F5801132462B4600F08EF903B095
:10057000BDE8F08F40462146F9E7001B61EB020120
:10058000001C41F5801300185B412018A2F50017EC
:1005900047EB030140EAD570B6196D4111E06D08D3
:1005A0004FEA360645EAC0754FEA0752001B61EB79
:1005B0000201001C41F5801149084FEA3000001982
:1005C000514132462B4603B0BDE8F04F00F04EB922
:1005D0000098012240000023D0EB020263EBE0739D
:1005E000009821464FEAE074B8EB000061EB04018B
:1005F000E9E783F000435BE781F0004158E72DE92C
:10060000FE4F81EA030404F0004421F0004100940D
:100610004FF0000B23F0004350EA01045ED052EA91
:1006200003045BD0C3F30A54C1F30A552C44A4F26B
:10063000F3340194A0FB0254C1F3130141F480117F
:10064000C3F3130343F4801301FB024400FB034E86
:10065000840A970A44EA815447EA8357A4FB07684F
:1006600002958D0A05FB07854FEA932C04FB0C5479
:100670002705029D4FEA065847EA1637B5EB0805ED
:100680006EEB070C870E920E47EA811742EA83123F
:10069000A7FB0201B6EB0B0164EB00042B0D43EA50
:1006A0000C335E1844EB1C50DA465146E7FB02015E
:1006B000C5F313044FEA0B3343EA14534FEA0432F1
:1006C000019C43EA0603A4F10C040294009CCDE9CA
:1006D00000B400F0DAF803B0BDE8F08F0020014666
:1006E000F9E72DE9F04D81EA030404F0004B21F015
:1006F000004514464FF0000A23F0004150EA05027D
:1007000020D054EA01021DD0C5F30A570246C5F3B2
:100710001303C1F31300C1F30A5640F4801543F4E8
:100720008013A7EB0608101BD64608F2FD3873EBC2
:10073000050002D308F1010801E092185B41B8F10D
:10074000000F03DA00200146BDE8F08D00204FF4D1
:100750008011064684460EE0171B73EB050705D390
:10076000121B63EB050306434CEA010C49084FEAF0
:10077000300092185B4150EA0107EDD152EA0300C4
:1007800012D082EA040083EA0501084305D0101B59
:10079000AB4106D20122002306E000224FF00043C5
:1007A00002E06FF0010253101AEB06004CEB085107
:1007B00010EB0A0041EB0B01BDE8F04D00F056B81C
:1007C000C1F30A52C1F3130140F2FF3341F4801127
:1007D0009A4202DA00200146704740F233439A42BF
:1007E000A2F2334202DC5242FFF7F2BDFFF7E1BD55
:1007F00030B5041E71F1000404DB4FF000444042A8
:1008000064EB0101141E73F1000405DB1C464FF07C
:100810000043524263EB0403994208BF904230BD4B
:1008200000207047064C074D06E0E06840F00103E9
:1008300094E8070098471034AC42F6D3FFF730FD38
:1008400080F70008A0F70008202A06DBCB17203A23
:1008500041FA02F043EAE07306E041FA02F3D040C5
:10086000C2F12002914008431946704710B5141E8A
:1008700073F1000408DA401C41F1000192185B4159
:100880001A4301D120F0010010BD2DE9F04D924630
:100890009B4611B1B1FA81F202E0B0FA80F2203247
:1008A0009046FFF786FD04460F4640EA0A0041EAFB
:1008B0000B0153465A46084313D0114653EA010030
:1008C00019D0C8F140025046FFF782FD05460E469A
:1008D000504659464246FFF76CFD084305D00120BB
:1008E00004E020463946BDE8F08D0020054346EA85
:1008F000E0762C4337430A986305E40AA0EB08002E
:100900000022FD0A44EA47540A3002D5002001467D
:10091000E9E7010510196941DDE908450019694158
:10092000BDE8F04DA2E730B58C1810F8012B12F09D
:100930000F0301D110F8013B120906D110F8012B69
:1009400003E010F8015B01F8015B5B1EF9D101E0E7
:1009500001F8013B521EFBD1A142E6D3002030BD7D
:10096000C0F3052241F2D821C2F201410A70487059
:1009700008F032B8000000009FED091B41F2D821B9
:1009800020EE010BC2F20141BCEEC00B10EE100ACA
:1009900000BAC1F8020008F01FB800BF00BF00BFD6
:1009A0001EF8C3B12E2E1140B0B50446006842F2C5
:1009B000001140F48070C4F20201884218D142F262
:1009C0000830C4F20200006810F4403F18D005F06F
:1009D0002BFA61680546B1F5803F05D0B1F5403F7F
:1009E0002CD0B1F5003F2AD1080CB5FBF0F526E07C
:1009F00046F20830C5F60200006810F4403FE6D128
:100A00004FF40020002104F0BBF861680546A1F511
:100A100080224FEAB2420A2A11D8DFE802F0070723
:100A20000707070751535557590000BF6FF00100E2
:100A300000EA5140B5FBF0F501E000BFAD0803F05E
:100A40006FFD41F2030188420ED8206842F6015141
:100A5000C0F231118D4281682CBF41F4807121F4C4
:100A600080718160B0BD00BF4BF62140C0F2BE0076
:100A7000854205D82068816821F440718160B0BD4D
:100A800047F64100C0F27D10854207D82068012258
:100A9000816862F309218160B0BD00BF20684FF218
:100AA0008101C0F2FA218D42816805D8022262F3E9
:100AB00009218160B0BD00BF41F440718160B0BDCB
:100AC0002D09BCE76D09BAE7AD09B8E7ED09B6E74E
:100AD0002D0AB4E70000000070B504460068826883
:100AE0008368DB0843EA9202D2076BD0C2689201A6
:100AF00020D5627D012A1DD1227D012A1AD10168EB
:100B0000490612D44DF60441C0F20C0104394FD00D
:100B1000026852065FBF02685FEA426202685FEAEB
:100B2000426202D402685206F0D5402101600121E0
:100B300006E000BF022903D10221082612E000BF0F
:100B4000826852070AD58268920707D44FF6C073AD
:100B50008268C7F6FF731A401032826001294FF095
:100B6000040610D0826812070AD58268920707D45B
:100B70004FF6C0738268C7F6FF731A402032826056
:100B8000032908BF0C2603F0D3FC21688968314291
:100B900018D0054603E000BF8068304212D003F051
:100BA000C7FC401B06282068F6D381683142F3D089
:100BB000606D40F010006065A06D40F00100A06520
:100BC000012070BD002070BD0146806B426D12F0A7
:100BD000500F426D06D0D20610D4C06CC26C0846CD
:100BE000104700BF42F40071416501680A681207AE
:100BF000CA6805D4910717D000F0F6BE00F050BFC8
:100C000012F4406FF8D1C9688904F5D4416D21F41C
:100C100080714165416DC904EED4416D41F001011F
:100C2000416500F0E1BE00BF416D21F48071416576
:100C3000416DC904E0D4416D41F00101416500F00E
:100C4000D3BE000000000000806B416D41F0400108
:100C50004165816D41F00401816500F021BF000014
:100C6000806B00F011BF0000B0B5016804468868D1
:100C700080078A684FF0000033D412F0010208BFE9
:100C8000B0BD886800F00D0001281FD14FF6C0727A
:100C90008868C7F6FF721040023088600320086041
:100CA00003F046FC21688968C90701D10020B0BD66
:100CB000054602E08068C00712D003F039FC401BF3
:100CC00003282068F6D38168C907F3D0606D40F02F
:100CD00010006065A06D40F00100A0650120B0BD6E
:100CE0000020B0BD00000000F0B581B004460068EF
:100CF0008168C90752D14FF6C0778168C7F6FF7780
:100D000007F17F0211420BD0606D40F0100060656A
:100D1000A06D40F00100A065012001B0F0BD00BF52
:100D20008168394041F00101816003F001FC42F229
:100D3000000246F20836C4F20202216802F580730E
:100D400002F54275C5F60206994208BF2E46914249
:100D50000A4608BF2E469942054604BF42F20002E9
:100D6000C4F2020230688A4218BF10F01F0015D189
:100D70000868C00712D18868C00704D18868384065
:100D800040F00100886003F0D3FB401B216803287A
:100D9000EED30868C007EBD1B6E700BF002001B072
:100DA000F0BD000000000000652803D29FED180A86
:100DB000704700BF40F6B731884203D99FED150A4E
:100DC000704700BFA0F1640148F21F5289B2C5F21A
:100DD000EB12A1FB02129FED101A51096FF0630292
:100DE00001FB0200643800EE100A4FF2E440C0F646
:100DF000000000EB8100B8EE400A90ED012A80EE81
:100E0000011A90ED000A32EE402A01EE020A704704
:100E10000A68623E9031A73F0000C842000000000F
:100E2000FEE700000000000010B5846B204601F0D2
:100E300017FA0120207110BD10B5846B204601F017
:100E40004BF90120207110BD10B5846B206940F072
:100E500004002061204601F00BFA0120207110BD32
:100E600010B5846B206940F004002061204601F039
:100E70003BF90120207110BD806B01F0F5B9000035
:100E8000806B01F02DB9000041F2E420C2F2014074
:100E900002F0EEB80000000041F2A050C2F20140A2
:100EA00002F0E6B80000000041F21860C2F2014012
:100EB00002F0DEB80000000041F22850C2F201400A
:100EC00002F0D6B80000000041F2B040C2F201408A
:100ED00002F0CEB80000000040F20F42D0F800C08F
:100EE000C4F20202944511DC6F22C4F2020294455E
:100EF00022DC3F22C4F20202944539DC1022C4F203
:100F0000020294455AD0282254E000BF40F26F42BA
:100F1000C4F2020294451BDC40F23F42C4F20202DA
:100F200094452DDC40F21042C4F20202944545D0B3
:100F300040F228423EE000BF9F22C4F202029445E4
:100F400028DC7022C4F20202944537D0882231E0B6
:100F500040F29F42C4F20202944523DC40F2704208
:100F6000C4F20202944529D040F2884222E000BF38
:100F70004022C4F20202944520D058221AE000BF59
:100F800040F24042C4F20202944517D040F2584267
:100F900010E000BFA022C4F2020294450ED0B82295
:100FA00008E000BF40F2B842C4F20202944505D006
:100FB00040F2A042C4F20202944519D16FF00F0230
:100FC0004AF6AB2352FA8CF2CAF6AA23A2FB0331EB
:100FD0000AA35F2AC1F302115B5C40F2FF312CEAE5
:100FE0000101C36588BF043181650846704700BFB1
:100FF0002CF0FF0181650846704700BF00061016FF
:10100000000610160000000070B540F26F44D0F8E2
:1010100000C0C4F20204D0F858E0A4451ADC9F25B1
:10102000C4F20205AC4533DC5725C4F20205AC45D9
:101030005ADC1025C4F20205AC4500F09880282542
:10104000C4F20205AC4500F092804025C4F20205CE
:101050008AE000BF45F22F45C5F60205AC452DDC00
:1010600040F2B745C4F20205AC454BDC40F2704596
:10107000C4F20205AC457AD040F28845C4F20205BC
:10108000AC4574D040F2A045C4F202056CE000BF4C
:1010900040F22745C4F20205AC4543DCA025C4F26A
:1010A0000205AC4563D0B825C4F20205AC455ED05C
:1010B00040F21045C4F2020556E000BF45F26B4510
:1010C000C5F60205AC453FDC45F23045C5F60205E4
:1010D000AC454CD045F24445C5F60205AC4546D07A
:1010E00045F258453EE000BF5825C4F20205AC4524
:1010F0003DD07025C4F20205AC4538D08825C4F235
:10110000020531E040F2B845C4F20205AC452ED0EC
:1011100045F20845C5F60205AC4528D045F21C4508
:1011200020E000BF40F22845C4F20205AC451ED0C5
:1011300040F24045C4F20205AC4518D040F2584593
:10114000C4F2020510E000BF45F26C45C5F6020589
:10115000AC450CD045F29445C5F60205AC4506D029
:1011600045F28045C5F60205AC4540F0D580456E98
:10117000C66E002E866E6E601CBFD0E91C566E6077
:10118000A44515DC9F24C4F20204A4452CDC57249A
:10119000C4F20204A44551DC1024C4F20204A445A4
:1011A0007AD02824C4F20204A44575D040246FE00C
:1011B00045F22F44C5F60204A44529DC40F2B744A9
:1011C000C4F20204A44545DC40F27044C4F20204B7
:1011D000A44561D040F28844C4F20204A4455BD027
:1011E00040F2A04454E000BF40F22744C4F202049D
:1011F000A4453FDCA024C4F20204A4454CD0B8248A
:10120000C4F20204A44547D040F2104440E000BFBD
:1012100045F26B44C5F60204A44555DC45F2304462
:10122000C5F60204A44561D045F24444C5F6020463
:10123000A4455BD045F2584454E000BF5824C4F2A2
:101240000204A44528D07024C4F20204A44523D08B
:1012500088241DE040F2B844C4F20204A4451BD027
:1012600045F20844C5F60204A4453FD045F21C44AB
:1012700038E000BF40F22844C4F20204A4450BD079
:1012800040F24044C4F20204A44505D040F2584460
:10129000C4F20204A4453FD18468C06D00F01F0071
:1012A0003F2505FA00F0CEF80800DCF80000402CDD
:1012B00020F48020CCF80000CCF8043023D0CCF807
:1012C0000810CCF80C2070BD45F26C44C5F6020441
:1012D000A4450BD045F28044C5F60204A44505D0D0
:1012E00045F29444C5F60204A44515D1C46D806846
:1012F00004F01F040125402805FA04F4CEF8044048
:10130000CCF8043004D1CCF80820CCF80C1070BD17
:10131000CCF80810CCF80C2070BD000000000000D4
:10132000704700000000000072B600BFFEE700003A
:1013300044F60400C5F60200816841F002018160B4
:101340000168890409D4016889045CBF01685FEA07
:10135000814102D401688904F2D570470000000081
:1013600070B582B000230193044690F85000012824
:1013700002D1022002B070BD012084F85000204646
:1013800015460E46FFF770FC616D18B141F0100173
:101390004CE000BF41F202124FF6C0739143C3F616
:1013A000FE7302316165216806F4803605F08045E0
:1013B0008A682E4413404FF2FF72C2F2C352334484
:1013C00003F100438B608B68B3F1FF3F2ADC019B84
:1013D00001330193019B93421DD88B68B3F1FF3F0A
:1013E00020DC019B01330193019B934213D88B684E
:1013F000B3F1FF3F16DC019B01330193019B934244
:1014000009D88B68B3F1FF3F0CDC019B01330193DA
:10141000019B9342D7D9606D40F0100020F002018B
:10142000012003E0616D012262F301016165002189
:1014300084F8501002B070BDB0B582B090F8502062
:10144000012A03D10221084602B0B0BD42F208329F
:1014500000230193C4F202020093A2F542740368D0
:10146000A34227D14FF6006C4FF60055CFF6FF7C14
:10147000CFF6FF7552F80C40535923435B0719D43C
:10148000D1F800E01368BEF1000F23F440441DD0F2
:101490004B6823431360535952F80C502B43DB071E
:1014A00022D1136840F61F758968AB4341EA0E01EB
:1014B000194316E0416D41F02001416501210022F0
:1014C00080F85020084602B0B0BD00BF14605159EA
:1014D00052F80C301943C90708D1116840F61F7340
:1014E000994311600021EAE70021E8E70021E6E7DF
:1014F000F0B581B00022009290F85020012A03D16B
:101500000221084601B0F0BD0768012380F8503081
:10151000BB685B0700F1A8810B684FF6FF7CB3F155
:10152000FF3FC0F20F0C11DD93FAA3F413EA0C0F86
:10153000B4FA84F44FF0010208BF9C0E9B0E04F035
:101540001F04A240FC692243FA6100E09B0E4A6836
:101550001F2603F01F03C2F3012402F01F0296406E
:1015600007EB840403FA02F2256B25EA06063243F0
:101570002263BA68BB68DB0843EA9202D2076AD1E9
:101580000A6807258E68C2F34063C2F3045207EB72
:10159000830395405C6906FA02F224EA05052A43B2
:1015A0005A6141F20002C5F60042126802F0704230
:1015B000B2F1805F2AD1D1F814E0FA680E2303EA71
:1015C00052040B69042B40F097803A6E0B6802F0CE
:1015D000F842B2EB836F4FEA836325D13A6E22F073
:1015E00000423A667A6E02F0F8429A4221D0BA6E10
:1015F00002F0F8429A4225D1BA6E22F00042BA6651
:10160000FA6E02F0F8429A4221D024E0FA68D1F84A
:1016100014E0FB68D2064FEA530367D403F00E04CC
:101620000B69042BD1D067E07A6E02F0F8429A423F
:10163000DDD17A6E22F000427A66BA6E02F0F8428C
:101640009A42D9D0FA6E02F0F8429A4203D1FA6E69
:1016500022F00042FA66BA68D2077BD1D1F800E0E6
:101660000023C968D7F8C0200EEA0C04C4F25273F4
:10167000A24301F018042CFA04F603F52D0506EA3E
:101680000E06A94246EA0201C7F8C01040F0958054
:1016900042F20011C4F202018F425DD042F2000119
:1016A000C4F202018F4273D11F21C1F2F0418E4575
:1016B00040F3FC8040F2FF71C2F630618E4540F38A
:1016C000E58040F60001C2F630618E4500F03481BD
:1016D00041F20001C3F260218E4500F01D8100211E
:1016E000C4F221318E4554D02CE100BF03F0080430
:1016F0000B69042B3FF469AF07F160020D680EFA25
:1017000004F605F0F84552F823402E4304F0004457
:10171000264342F823600B694E7E52F82350012E77
:1017200025F0004508BF05F1004542F823500A7E28
:101730000B693E69013A03F01F03B2FA82F226F404
:10174000F0465209D2029A4032433A61BA68D2074F
:101750003FF484AF00218CE01F21C1F2F0418E459F
:1017600000F38E800721C0F690418E4500F3AC80D7
:101770000221C0F230418E4500F0A3800421C0F662
:1017800060018E4540F0DE804023C1F6201300E06A
:10179000002393FAA3F143F6C132B1FA81F1C0F20A
:1017A0000A0213424FF0010208BF990E01F01F0117
:1017B00002FA01F1FA691143F961BEF1FF3F01DD5F
:1017C000002156E042F2000146F2083CC4F2020158
:1017D000C5F6020C01F5807201F54273974262462C
:1017E00008BF1A468F4242F2001408BF1A4647F457
:1017F0008073C4F20204A34213682DD18A68D1F821
:1018000008111143C9072FD1002103F0E074CCF671
:1018100084318E4508BF13F4000165D00021CCF25D
:1018200052718E4508BF13F0807163D0ACF54271E0
:101830008F424FF000011CD10022CCF6B8729645C1
:1018400008BF13F4800214D1DCF8001021F0E0711D
:10185000214341F48001BAE04FF60051CFF6FF7109
:101860005CF80110C907CFD0416D41F020014165FE
:101870000121002280F85020084601B0F0BD00BFD1
:1018800040F2FF71C2F630618E4539DC2021C1F291
:10189000F0418E4546D040F20041C2F600218E450F
:1018A00050D140F60003C2F6306372E70721C0F65C
:1018B00090418E4508DC0221C0F230418E457FF414
:1018C0005DAF012365E700BF0821C0F690418E455A
:1018D0002ED01021C1F2C0018E4533D140F2001349
:1018E000C2F2801355E700BFACF542718F4233D08E
:1018F0000021BEE7ACF542718F4261D00021B8E70C
:1019000040F60001C2F630618E4515D041F200016B
:10191000C3F260218E4515D142F20003C3F29063F9
:1019200037E700BF40F20023C2F2B05331E700BFF7
:101930008023C1F650532CE741F20003C3F2602329
:1019400027E700BF00210023C4F684318E4504BF81
:101950000023C4F6B8731CE7DCF8001042F66352AB
:1019600021F0E071C0F23E52214341F40001CCF875
:10197000001041F28C21C2F2014109688909A1FBE2
:1019800002129109022202EB41010091009919B360
:10199000009901390091009901B300990139009132
:1019A0000099E9B10099013900910099D1B10099EC
:1019B00001390091009900294FF00001E8D158E762
:1019C000DCF8001021F0E071214341F08071CCF887
:1019D000001000214DE700BF00214AE7002148E741
:1019E000002146E7002144E710B5044609F0F4F869
:1019F00090B142F200112068C4F2020188422FD057
:101A000042F20001C4F20201884210D10120BDE877
:101A1000104009F0F9B800BF41F28C30C2F2014029
:101A20000078042804D1204608F002F900B110BD66
:101A300042F200112068C4F20201884216D042F23C
:101A40000001C4F202018842F1D141F25C30C2F2DD
:101A5000014001780029EAD10121017010BD00BFC9
:101A60000220BDE8104009F0CFB800BF41F25C3061
:101A7000C2F201404178002918BF10BD0121417018
:101A800010BD00000000000041F28C31C2F20141A3
:101A90000978042918BF704708F0E6B80000000074
:101AA00010B5044609F098F8002808BF10BD42F2AE
:101AB00000122168C4F202020120914208BF0220F4
:101AC000BDE8104009F0B4B8806D70470000000018
:101AD000B0B582B0044600284FF00000019009D054
:101AE000606D58B120688168890012D48168C9008E
:101AF00019D54EE00125284602B0B0BD204600F0C1
:101B000027F90020A06584F85000206881688900CA
:101B1000ECD54FF6C0728168C5F6FF721140816046
:101B20008168C90035D44FF6C0718268C5F6FF716F
:101B300001F18051114042F6635201F18051816000
:101B400041F28C21C0F23E52C2F20141096889097A
:101B5000A1FB0212012101EB921101910199C1B186
:101B6000019901390191019900291FBF019901399A
:101B7000019101991FBF00290199013901911CBFF1
:101B80000199002905D00199013901910199002994
:101B9000E6D18168C90009D4616D012541F01001C9
:101BA0006165A16D41F00101A16500E0002581683A
:101BB000626D02F01002C1F380018918616D07D0D7
:101BC00041F0100001256065284602B0B0BD00BF9D
:101BD00021F48171023161658168C90728D142F21F
:101BE000001240F48071C4F20202914242F20001FC
:101BF000C4F2020140F0A0808A68D1F808311A438B
:101C0000D20715D101F5807201F5427346F2080C36
:101C10009042C5F6020C1A4618BF0CF54072884275
:101C200008BF1A466068116821F47C1108431060EF
:101C300002F076FC617D41F20402A36890424FEA13
:101C40004131226B0AD3102B08D1207F114341EA86
:101C5000004141F01C01012807D00DE0207F114315
:101C6000194341EA0041012806D1206A0022CFF63B
:101C7000FE7202EB40400143606A28B100F47870C4
:101C8000A26A084340EA020120684CF20303CFF63F
:101C9000F073C2681A401143C16081688268D2083B
:101CA00042EA9101C90733D1217D44F2030CE26A73
:101CB000C36842EA813123EA0C021143C16094F8FF
:101CC00038100129016917D14FF61E02CFF60042E4
:101CD00001EA020C0021D4E90F23CFF6FF7101EBDA
:101CE00002414CEA0302636C1143A26C1943114395
:101CF00041F0010102E000BF21F001010161016931
:101D0000626B21F07041114301612046FEF74CFEE9
:101D10002068E1680129026B22F00F0102D1A2695B
:101D2000013A114301630121606D61F301006065B7
:101D3000284602B0B0BD00BF46F20802C5F6020256
:101D40001268D2073FF45EAF72E7000000000000A7
:101D50002DE9F04186B042F2001204460068C4F258
:101D6000020290424FF00001CDE904110391CDE948
:101D7000011159D042F20001C4F20201884240F040
:101D8000C38041F2E02644F2E040C2F20146C5F6CB
:101D900002003168002901F1010131600BD150F8D6
:101DA000081C41F0200140F8081C50F8081C01F004
:101DB0002001009100990168002741F001010160B4
:101DC000006801A900F001000090009840200190F7
:101DD000032002900020C5F60200039702F094FA57
:101DE00035461020C4F2020045F8040F0920C5E969
:101DF00001074FF4806028614FF4006068614FF480
:101E00000050A8614FF48070EF60C5E907072846CD
:101E10006F6201F04DFD002872D0FFF785FA06F1E0
:101E20003C07351D6EE000BF41F2E02144F2E04086
:101E3000C2F20141C5F602000A68002A02F101025D
:101E40000A600BD150F8081C41F0200140F8081C32
:101E500050F8081C01F0200100910099016800254C
:101E600041F0010101600168C5F6020501F00101C0
:101E700000910099016841F002010160006801AE23
:101E800000F0020000900098402001902846314662
:101E90004FF00308CDF808800027039702F034FACA
:101EA00001203146CDE9010805F58060039702F075
:101EB0002BFA41F2B0451020C2F20145C4F20200F3
:101EC000603028600A20C5E901074FF4806028616E
:101ED0004FF4006068614FF40050A8614FF48070C7
:101EE000E8614FF44030EF60C5E90807284601F08B
:101EF000DFFC05F1380728B1FFF716FA02E000BF52
:101F000005F13807E5643C6006B0BDE8F0810000EB
:101F10002DE9F04381B042F2000746F20836C4F2E0
:101F200002070446036807F5807507F54270C5F699
:101F30000206AB4208BF0646BB4208BF06463068F1
:101F40009B685B0704D4894694F85010012903D19B
:101F5000022001B0BDE8F08300F01F060120092E29
:101F600084F850005ED8B04040F22121084259D098
:101F700020469046FEF7B8FE30B1002184F850109C
:101F800001B0BDE8F08300BF2168606D40F60172CA
:101F9000A94220EA020018BF0F46002E00F580700B
:101FA000606518BF8F4203D1606D20F480106065BA
:101FB000606D40F6C933C0044FF0000044BFA06D0F
:101FC00020F0060040F66147C0F60003A065C0F6A9
:101FD0000007E06C0022C0E90F3740F64943E76A8A
:101FE000C0F60003C3641C230B6084F850204346F2
:101FF0004A6842F010024A60CA6822F003023A437B
:10200000CA6040314A4601F097FF21684FF6C0731D
:10201000C7F6FF738A681A4004328A6001B0BDE8CF
:10202000F08300BF002084F85000012001B0BDE81B
:10203000F083000000000000B0B5044690F85000A6
:10204000012801D10220B0BD012084F850000321F5
:102050002046FEF741FD054620B1002084F85000DF
:102060002846B0BD2168E06CCA6822F00302CA604D
:1020700090F83520022A16D100F03AFA90B10546C0
:102080002068616D41F040016165416821F01001F7
:1020900041602046FEF7E8FD002084F85000284605
:1020A000B0BD00BF2168486820F01000486020469D
:1020B000FEF7DAFD05460028CFD1606D41F201112F
:1020C0008843002501306065002084F850002846D0
:1020D000B0BD0000000000007047000000000000DC
:1020E0007047000000000000704700000000000082
:1020F0002DE9F041044600284FF0010000F0AB80CC
:102100000D46002900F0A780607901284FF00200F9
:1021100008BFBDE8F0812968904604294FF001020C
:10212000627120714ED102F003FA2168B8F1000FFC
:102130000746486B14D0B0F1FF3F06DDA86948643C
:102140002AE000BF486B0028F8D502F0F1F9C01B67
:1021500021680228F6D3486BB0F1FF3FF2DC11E0B2
:1021600048F20006C2F2000601E000BF486B3042B0
:1021700010D002F0DDF9C01B21680228F6D3486BAD
:102180003042F3D0206940F0080020610320207124
:10219000BDE8F081A869086408F0100240F2FF333E
:1021A000886C9340EF69984307FA02F32F6A18434B
:1021B0008864FF20CB6C904023EA000007FA02F20B
:1021C0001043C8642869216801280BD108F0100267
:1021D0001F23886B93406F69984307FA02F31843F3
:1021E000886301E008F010020723C86BEF68934092
:1021F000012F20EA030C4FF0000003D0022F03D17F
:10220000012705E0002703E0AF68B7FA87F77F09E9
:102210002E68AB6837433B436F68934043EA0C0337
:10222000CB634FF480430E68934026EA03030B60B0
:1022300040F6FE730E68934026EA030397403B4343
:102240000B60C02303FA02F20B6823EA02020A6061
:10225000012121716071BDE8F081000000000000E3
:102260007047000000000000704700000000000000
:102270007047000000000000006970470000000087
:1022800080B110B50446007920B900206071204665
:1022900000F00AF802202071002020610121217144
:1022A00010BD00BF0120704770B586B047F20041F5
:1022B00004460068C4F20001002688420596049690
:1022C00002D006B070BD00BF44F2E040C5F6020087
:1022D000816841F000518160816801F000510091F6
:1022E0000099016841F001010160006801A900F056
:1022F000010000900098102001900320CDE9020613
:102300000020C5F6020001F0FFFF41F228555820D9
:10231000C2F20145C4F202002860432068604020F8
:10232000C5E902064FF4806028614FF400606861DF
:102330004FF40050A8614FF48070E8614FF44030D2
:10234000C5E90806284601F0B3FA08B1FEF7ECFF2C
:10235000A560AC6306B070BD81B04FF0000CCDF845
:1023600000C038B10068009041B1009810441430AA
:1023700007E000BF012001B0704700BF0098104483
:102380000830009000980360002001B07047000002
:1023900070B568B30446407901284FF0020008BFC9
:1023A00070BD0D46DDF810C04FF001016171207164
:1023B00005B3E06840F6396640F6816E2168C0F6E4
:1023C0000006C0F6000EC0E90F6E40F66166BCF173
:1023D000040FC0F60006C6640E6846F080560E6014
:1023E00028D0BCF1000F29D101F1140C28E000BF66
:1023F000012070BDA06840F6296E40F6796621681C
:10240000C0F6000EC0F60006C0E90FE640F64966C9
:10241000BCF1040FC0F60006C6640E6846F4805690
:102420000E602DD0BCF1000F30D101F1080C4FF43B
:10243000005E07E001F1180C02E000BF01F11C0C86
:102440004FF0005E0E6846EA0E060E6011466246C8
:1024500001F072FD4FF00001617128B1216941F076
:102460000401216170BD00BF206805F01001012248
:1024700002FA01F1026811430160002070BD00BF43
:1024800001F10C0C4FF4005EDCE700BF01F1100C11
:102490004FF4005ED6E7000070B54FF0010418B3AA
:1024A0000546006801F010024FF4805303FA02FC65
:1024B000036823EA0C0303600C230029016804FA73
:1024C00002F208BF08236FF0005621EA0201016002
:1024D00008BF6FF40056E85800F00AF82868016851
:1024E000314001602C710024204670BD00000000C6
:1024F0002DE9F041044602F01BF82CB3054694F890
:102500003500022824D1276840F20F46C4F20206A3
:1025100040F26F483868B742C4F2020820F0010068
:1025200038601DDC6F20C4F2020087422ADC3F20A5
:10253000C4F20200874241DC1020C4F2020087424C
:1025400063D028205CE000BF0120BDE8F08100BF1F
:10255000802060650120002184F83410BDE8F081FE
:1025600047451BDC40F23F40C4F2020087422DDCAD
:1025700040F21040C4F20200874246D040F22840A8
:102580003EE000BF9F20C4F20200874228DC70209A
:10259000C4F20200874238D0882031E040F29F40E8
:1025A000C4F20200874223DC40F27040C4F2020011
:1025B00087422AD040F2884022E000BF4020C4F287
:1025C0000200874221D058201AE000BF40F240406C
:1025D000C4F20200874218D040F2584010E000BF19
:1025E000A020C4F2020087420FD0B82008E000BF4C
:1025F00040F2B840C4F20200874206D040F2A04048
:10260000C4F20200874240F095813946386820F0D4
:102610001E0041F8140B6FF080000A68474500EA7D
:10262000020008601ADC9F20C4F20200874233DCFB
:102630005720C4F2020087425ADC1020C4F2020084
:10264000874200F097802820C4F20200874200F001
:1026500091804020C4F202008AE000BF45F22F4082
:10266000C5F6020087422DDC40F2B740C4F20200FA
:1026700087424BDC40F27040C4F20200874279D0BE
:1026800040F28840C4F20200874273D040F2A0407A
:10269000C4F202006CE000BF40F22740C4F2020026
:1026A000874243DCA020C4F20200874262D0B820F7
:1026B000C4F2020087425DD040F21040C4F2020032
:1026C00056E000BF45F26B40C5F6020087423FDC92
:1026D00045F23040C5F6020087424BD045F24440F7
:1026E000C5F60200874245D045F258403EE000BFA3
:1026F0005820C4F2020087423CD07020C4F202008D
:10270000874237D08820C4F2020031E040F2B8405E
:10271000C4F2020087422DD045F20840C5F60200FF
:10272000874227D045F21C4020E000BF40F22840FD
:10273000C4F2020087421DD040F24040C4F20200C1
:10274000874217D040F25840C4F2020010E000BFA8
:1027500045F26C40C5F6020087420BD045F294402A
:10276000C5F60200874205D045F28040C5F602005A
:10277000874205D1206E016821F48071016000BF9D
:102780003868C00710D001F0D3FE401B0628F7D3ED
:1027900020206065032084F835000120002184F8A2
:1027A0003410BDE8F08100BF2068B04210DC6F211A
:1027B000C4F2020188421DDC3F21C4F202018842BA
:1027C00034DC1021C4F20201884255D028214FE0A8
:1027D00040451BDC40F23F41C4F2020188422DDC3F
:1027E00040F21041C4F20201884245D040F2284133
:1027F0003EE000BF9F21C4F20201884228DC702124
:10280000C4F20201884237D0882131E040F29F4172
:10281000C4F20201884223DC40F27041C4F202019A
:10282000884229D040F2884122E000BF4021C4F212
:102830000201884220D058211AE000BF40F24041F6
:10284000C4F20201884217D040F2584110E000BFA4
:10285000A021C4F2020188420ED0B82108E000BFD6
:1028600040F2B841C4F20201884205D040F2A041D2
:10287000C4F20201884261D1D4E9161202F01F02AB
:102880003F2303FA02F28A60404561DC9F21C4F2D3
:102890000201884214DC5721C4F20201884227DC7D
:1028A0001021C4F20201884200F0A8802821C4F25D
:1028B0000201884200F0A2804021C4F202019BE0A4
:1028C00040F22741C4F20201884221DCA021C4F277
:1028D0000201884200F09280B821C4F202018842CD
:1028E00000F08C8040F21041C4F2020184E000BF8D
:1028F0005821C4F20201884200F080807021C4F2A5
:10290000020188427AD08821C4F2020174E000BF3B
:1029100040F22841C4F2020188426FD040F24041A7
:10292000C4F20201884269D040F25841C4F2020167
:1029300062E000BF6FF00E0039466EE6D4E9161271
:1029400002F01F02012303FA02F24A6040459DDDB6
:1029500045F22F41C5F60201884217DC40F2B7412B
:10296000C4F20201884227DC40F27041C4F2020145
:10297000884243D040F28841C4F2020188423DD0EF
:1029800040F2A041C4F2020136E000BF45F26B41C3
:10299000C5F6020188421FDC45F23041C5F602014E
:1029A00088422BD045F24441C5F60201884225D029
:1029B00045F258411EE000BF40F2B841C4F20201A6
:1029C00088421BD045F20841C5F60201884215D065
:1029D00045F21C410EE000BF45F26C41C5F6020114
:1029E00088420BD045F29441C5F60201884205D0D9
:1029F00045F28041C5F6020188420BD1616EA26E9C
:102A0000E06E4A6030B1016821F480710160D4E960
:102A10001C014160012084F835000020002184F869
:102A20003410BDE8F081000080B5D8B190F83510C1
:102A3000022919D140F20F420168C4F20202914208
:102A400016DC6F23C4F20203994227DC3F23C4F251
:102A5000020399423EDC1023C4F2020399425FD084
:102A6000282359E0012080BD80214165012080BDDF
:102A700040F26F43C4F2020399421BDC40F23F4331
:102A8000C4F2020399422DDC40F21043C4F2020367
:102A9000994245D040F228433EE000BF9F23C4F254
:102AA0000203994228DC7023C4F20203994237D012
:102AB000882331E040F29F43C4F20203994223DCB1
:102AC00040F27043C4F20203994229D040F2884395
:102AD00022E000BF4023C4F20203994220D05823D1
:102AE0001AE000BF40F24043C4F20203994217D0FB
:102AF00040F2584310E000BFA023C4F20203994201
:102B00000ED0B82308E000BF40F2B843C4F202037D
:102B1000994205D040F2A043C4F20203994275D114
:102B200091424FF0040280F8352011DC6F20C4F28E
:102B30000200814222DC3F20C4F20200814239DCE3
:102B40001020C4F20200814259D0282054E000BF76
:102B500040F26F40C4F2020081421BDC40F23F4071
:102B6000C4F2020081422DDC40F21040C4F20200A7
:102B7000814244D040F228403EE000BF9F20C4F292
:102B80000200814228DC7020C4F20200814236D06B
:102B9000882031E040F29F40C4F20200814223DCF1
:102BA00040F27040C4F20200814228D040F28840D6
:102BB00022E000BF4020C4F2020081421FD0582012
:102BC0001AE000BF40F24040C4F20200814216D039
:102BD00040F2584010E000BFA020C4F20200814241
:102BE0000DD0B82008E000BF40F2B840C4F20200A7
:102BF000814204D040F2A040C4F202008142086841
:102C000020F001000860002080BD00BF0A6822F0AB
:102C100001020A6045F25742C5F6020291420A6873
:102C200022F00E020A600FDC45F22F42C5F60202C6
:102C3000914219DC45F20842C5F60202914229D0C0
:102C400045F21C4222E000BF45F27F42C5F6020277
:102C5000914213DC45F25842C5F60202914219D066
:102C600045F26C4212E000BF45F23042C5F6020266
:102C700091420FD045F2444208E000BF45F2944231
:102C8000C5F60202914205D045F28042C5F6020225
:102C900091421AD1D0E9181CD0E916E30A6822F44F
:102CA00080720A6003F01F01012202FA01F1CEF8DE
:102CB0000410816ECCF80410C16E31B10A6822F4A0
:102CC00080720A60D0E91C124A60012180F8351038
:102CD000026D002180F834100AB1904700210846A7
:102CE00080BD00000000000070B528B3016840F20C
:102CF0006F420446C4F202020868914220F00100CB
:102D000008604FF0010019DC9F22C4F202029142D8
:102D100030DC5722C4F20202914255DC1022C4F288
:102D20000202914200F07F802822C4F20202914206
:102D300079D0402272E000BF012070BD45F22F42E1
:102D4000C5F60202914229DC40F2B742C4F2020207
:102D5000914245DC40F27042C4F20202914262D0DC
:102D600040F28842C4F2020291425CD040F2A0429A
:102D700054E000BF40F22742C4F2020291423FDC1D
:102D8000A022C4F2020291424DD0B822C4F2020243
:102D9000914248D040F2104240E000BF45F26B4201
:102DA000C5F60202914251DC45F23042C5F60202FC
:102DB00091425ED045F24442C5F60202914258D09B
:102DC00045F2584250E000BF5822C4F2020291423C
:102DD00029D07022C4F20202914224D088221DE040
:102DE00040F2B842C4F2020291421CD045F20842BD
:102DF000C5F6020291423CD045F21C4234E000BFCD
:102E000040F22842C4F2020291420CD040F2404209
:102E1000C4F20202914206D040F25842C4F20202C9
:102E2000914240F0F5800020086048608860C860EA
:102E30000861212048612046FEF74EF8E16D3F22EF
:102E400001F01F0102FA01F1816022E045F26C42BB
:102E5000C5F6020291420CD045F28042C5F602024C
:102E6000914206D045F29442C5F60202914240F0EA
:102E7000CF800020086048608860C86008612046F4
:102E8000FEF72AF8E16D012201F01F0102FA01F1BB
:102E9000416045F2574C2268C5F6020C45F6000E1B
:102EA0006245C5F6020E13DC45F22F40C5F602005E
:102EB000824221DC45F20840C5F60200824235D04C
:102EC00045F21C40C5F6020082422FD0A2E000BFAE
:102ED00045F27F40C5F6020082421BDC45F25840B5
:102EE000C5F60200824221D045F26C40C5F60200D0
:102EF00082421BD08EE000BF45F23040C5F6020092
:102F0000824213D045F24440C5F6020082420DD001
:102F100080E000BF45F29440C5F60200824205D031
:102F200045F28040C5F60200824273D16FF007007F
:102F30004CF6CD4150FA82F0CCF6CC41A0FB010119
:102F40000EF180057346090903EB810001F01F06AD
:102F500020660120656600FA06F6A666002043F8A2
:102F600021006E6061684B1E072B43D862450FDC61
:102F700045F22F46C5F60206B24219DC45F2084674
:102F8000C5F60206B24229D045F21C4622E000BF37
:102F900045F27F46C5F60206B24213DC45F25846BA
:102FA000C5F60206B24219D045F26C4612E000BFE7
:102FB00045F23046C5F60206B2420FD045F244460D
:102FC00008E000BF45F29446C5F60206B24205D0BD
:102FD00045F28046C5F60206B2423DD10EEB8101B4
:102FE0000EF5A072FC31E166012600250D6006FA9F
:102FF00003F15160C4E91B006067C4E90F00C4E934
:103000001100C4E91300606584F8350084F83400C9
:1030100070BD00BF6FF00F004AF6AB2150FA82F08E
:10302000CAF6AA21A0FB010340F20F41C4F202013B
:10303000082518098A4201F1AA06014688BF05EB56
:10304000131140F60003B242C4F2020303F18005FB
:1030500028BF014678E700BF40F60002C4F2020232
:1030600002EB810102F5A072FC31BDE70000000017
:103070002DE9F04782B00021019141F28C210446F4
:10308000C2F2014148F2B512C1F64E32A56D09688F
:1030900040F26F490068C4F20209A1FB02184845DA
:1030A0002E68296816DC9F21C4F2020188422DDCBB
:1030B0005721C4F20201884252DC1021C4F20201FD
:1030C00088427BD02821C4F20201884276D0402178
:1030D00070E000BF45F22F42C5F60202904229DCA3
:1030E00040F2B742C4F20202904245DC40F2704125
:1030F000C4F20201884261D040F28841C4F2020168
:1031000088425BD040F2A04154E000BF40F227412A
:10311000C4F2020188423FDCA021C4F202018842CD
:103120004CD0B821C4F20201884247D040F210418D
:1031300040E000BF45F26B42C5F60202904275DCEA
:1031400045F23042C5F60202904200F0818045F21D
:103150004442C5F6020290427AD045F2584273E0EA
:103160005821C4F20201884228D07021C4F2020121
:10317000884223D088211DE040F2B842C4F2020206
:1031800090421BD045F20842C5F6020290425FD041
:1031900045F21C4258E000BF40F22841C4F202014F
:1031A00088420BD040F24041C4F20201884205D06F
:1031B00040F25841C4F20201884261D1E16D082217
:1031C00001F01F0140F20F4A8A40C4F2020A324263
:1031D00000F0E98050454FF0040313DC6F27C4F280
:1031E0000207B8426CDC3F27C4F20207B84200F382
:1031F000A7801027C4F20207B84200F0C880282731
:10320000C0E000BF484567DC40F23F47C4F2020718
:10321000B84200F39D8040F21047C4F20207B84262
:1032200000F0B58040F22847ACE000BF45F26C42A8
:10323000C5F6020290420BD045F28042C5F602026A
:10324000904205D045F29442C5F60202904217D151
:103250000268E36D570703F01F0315D504279F404D
:1032600017EA010610D011046F6045D4910603D40B
:10327000016821F004010160216C002940F0F68210
:1032800002B0BDE8F08700BF97073DD502279F40F9
:1032900017EA010638D011046F6000F1ED82910643
:1032A00009D4016821F00A010160012084F8350089
:1032B000002084F83400E16B002940F0D782DFE77A
:1032C0009F27C4F20207B8424CDC7027C4F2020701
:1032D000B8425CD0882755E040F29F47C4F202070D
:1032E000B84247DC40F27047C4F20207B8424ED001
:1032F00040F2884746E000BFD00300F1C382216C52
:10330000002940F0B382BBE71207B9D508229A40E2
:103310001140B5D0016821F00E010160012000FAD2
:1033200003F16960606584F835000020E16C84F881
:1033300034000029A4D02046884702B0BDE8F087B9
:103340004027C4F20207B84221D058271AE000BF34
:1033500040F24047C4F20207B84218D040F2584742
:1033600010E000BFA027C4F20207B8420FD0B82770
:1033700008E000BF40F2A047C4F20207B84206D0FE
:1033800040F2B847C4F20207B84218BF08230768E2
:103390001F4208D0036823F004030360AA60626D33
:1033A00042F00102626501228A4032426FD05045EC
:1033B00010DC6F23C4F2020398421DDC3F23C4F2E9
:1033C0000203984234DC1023C4F20203984256D020
:1033D00028234FE048451BDC40F23F43C4F2020380
:1033E00098422DDC40F21043C4F20203984246D0CA
:1033F00040F228433EE000BF9F23C4F202039842FC
:1034000028DC7023C4F20203984238D0882331E0CC
:1034100040F29F43C4F20203984223DC40F270431F
:10342000C4F2020398422AD040F2884322E000BF4F
:103430004023C4F20203984221D058231AE000BF6F
:1034400040F24043C4F20203984218D040F258437D
:1034500010E000BFA023C4F2020398420FD0B823AB
:1034600008E000BF40F2A043C4F20203984206D035
:1034700040F2B843C4F20203984240F00F8243691D
:103480001B0604D5AA60626D42F002026265042246
:103490008A4032426FD0504510DC6F23C4F20203E1
:1034A00098421DDC3F23C4F20203984234DC10230F
:1034B000C4F20203984256D028234FE048451BDC53
:1034C00040F23F43C4F2020398422DDC40F2104325
:1034D000C4F20203984246D040F228433EE000BFC7
:1034E0009F23C4F20203984228DC7023C4F2020333
:1034F000984238D0882331E040F29F43C4F202035F
:10350000984223DC40F27043C4F2020398422AD06E
:1035100040F2884322E000BF4023C4F202039842F5
:1035200021D058231AE000BF40F24043C4F2020306
:10353000984218D040F2584310E000BFA023C4F2D4
:10354000020398420FD0B82308E000BF40F2A04326
:10355000C4F20203984206D040F2B843C4F2020318
:10356000984240F0A38103689B0704D5AA60626D6E
:1035700042F004026265102202FA01F1314200F0C9
:10358000818050454FF0080210DC6F23C4F2020323
:1035900098421DDC3F23C4F20203984234DC10231E
:1035A000C4F20203984256D028234FE048451BDC62
:1035B00040F23F43C4F2020398422DDC40F2104334
:1035C000C4F20203984246D040F228433EE000BFD6
:1035D0009F23C4F20203984228DC7023C4F2020342
:1035E000984238D0882331E040F29F43C4F202036E
:1035F000984223DC40F27043C4F2020398422AD07E
:1036000040F2884322E000BF4023C4F20203984204
:1036100021D058231AE000BF40F24043C4F2020315
:10362000984218D040F2584310E000BFA023C4F2E3
:10363000020398420FD0B82308E000BF40F2A04335
:10364000C4F20203984206D040F2B843C4F2020327
:10365000984218BF04220368134213D0A96001687E
:103660004903016808D4C90508D4016821F008019C
:103670000160216C21B905E008034FD4216C09B128
:1036800020468847E06D00F01F01202000FA01F27B
:10369000324200F0AB8020681023504510DC6F27C9
:1036A000C4F20207B8421DDC3F27C4F20207B84249
:1036B00038DC1027C4F20207B8425AD0282753E05A
:1036C00048451BDC40F23F47C4F20207B84231DCF8
:1036D00040F21047C4F20207B8424AD040F22847ED
:1036E00042E000BF9F27C4F20207B8422CDC7027DB
:1036F000C4F20207B8423CD0882735E040F29F4729
:10370000C4F20207B84227DC40F27047C4F2020755
:10371000B8422ED040F2884726E000BFA16C0029B5
:10372000AED1AFE74027C4F20207B84221D05827F4
:103730001AE000BF40F24047C4F20207B84218D076
:1037400040F2584710E000BFA027C4F20207B84279
:103750000FD0B82708E000BF40F2A047C4F202072C
:10376000B84206D040F2B847C4F20207B84218BFC8
:10377000022307681F4239D0AA6094F83520042A32
:1037800002681BD122F016020260426922F0800218
:103790004261226C0AB9A26C1AB1026822F00802D6
:1037A00002603F208840A860012084F83500216D28
:1037B0000020002984F8340058D161E551030168E4
:1037C0000ED4C9050ED4016821F01001016001205A
:1037D00084F83500002084F83400E16B21B905E05D
:1037E000080353D4E16B09B120468847606D002877
:1037F0003FF446AD606DC00734D0042084F8350036
:1038000020684FEA9821026822F001020260019AC2
:10381000013201928A421AD80268D20717D0019A5F
:10382000013201928A4212D80268D2070FD0019A5F
:10383000013201928A420AD80268D20707D0019A5F
:10384000013201928A4202D80268D207DFD10068B1
:10385000C0074FF0030008BF012084F835000020A6
:1038600084F83400E16C00293FF40AAD2046884713
:1038700002B0BDE8F08700BFD0030BD4616C002913
:10388000F4D1FDE4A16C0029F0D1F9E4616C0029C8
:10389000AAD1ABE7E16B0029E8D1F1E40268042288
:1038A0008A4032427FF4F7AD65E600BF026862E607
:1038B000F0B581B0044600F03BFE002C00F017810B
:1038C00040F26F4705462068C4F20207B84217DC91
:1038D0009F21C4F2020188422EDC5721C4F202016A
:1038E000884255DC1021C4F20201884200F07F803A
:1038F0002821C4F20201884279D0402172E000BF41
:1039000045F22F41C5F60201884229DC40F2B74159
:10391000C4F20201884247DC40F27041C4F2020165
:10392000884264D040F28841C4F2020188425ED0ED
:1039300040F2A04156E000BF40F22741C4F202012C
:10394000884241DCA021C4F2020188424FD0B82154
:10395000C4F2020188424AD040F2104142E000BF66
:1039600045F26B41C5F60201884200F3C38045F27F
:103970003041C5F60201884200F0CF8045F2444153
:10398000C5F60201884200F0C88045F25841BFE008
:103990005821C4F20201884229D07021C4F20201E8
:1039A000884224D088211DE040F2B841C4F20201CF
:1039B00088421CD045F20841C5F60201884200F059
:1039C000AC8045F21C41A3E040F22841C4F2020160
:1039D00088420CD040F24041C4F20201884206D035
:1039E00040F25841C4F20201884240F0A182022113
:1039F00084F83510002184F83410016821F00101A9
:103A000001600168C90709D000F092FD401B05283C
:103A100000F2688020680168C907F5D148F23F02CA
:103A200004F108060168CFF6106211406CCE114314
:103A3000A2691943E3692943256A0E43616A164363
:103A4000042943EA060343EA050303D1D4E90B65DD
:103A500033432B4341F20006C5F600463668B6F103
:103A6000005F1DD36668A6F12905292D18D8DFE867
:103A700005F015151515151517171717171717171B
:103A800017171717171717171515151517171717CE
:103A900015151717171717171515151543F4801354
:103AA00003600429436923F0070341EA030140F05E
:103AB000F180D4E90A53002B41EA050100F0EA80C5
:103AC000B2F5005F00F0CC80002A40F0D580022DD6
:103AD00000F0D580012D00F0C980002D00F0CF80CE
:103AE000D8E000BF20206065032084F83500012065
:103AF00001B0F0BD45F26C41C5F6020188420CD020
:103B000045F28041C5F60201884206D045F2944153
:103B1000C5F60201884240F00B82022184F835107C
:103B2000002184F834100168A268A2F18003E668DD
:103B3000B3FA83F3402A4FEA53134FEA83336FF308
:103B4000101108BF1023226941EAD60166691943A2
:103B5000A36941EAD201E26941EAD60141EAD3010F
:103B60004CF6CD4341EAD2014AF6F832CAF2FD7270
:103B7000266A0244CCF6CC43A2FB032341EA161189
:103B800001606FF0030000EA9300E0652046FDF756
:103B9000A3F9E16D012201F01F0102FA01F1416078
:103BA0002068B84240F3858045F22F41C5F60201F6
:103BB000884217DC40F2B741C4F20201884229DC96
:103BC00040F27041C4F20201884200F0BC8040F231
:103BD0008841C4F20201884200F0B58040F2A04161
:103BE000ACE000BF45F26B41C5F60201884223DC20
:103BF00045F23041C5F60201884200F0A48045F24A
:103C00004441C5F60201884200F09D8045F25841CA
:103C100022E000BF40F2B841C4F20201884200F045
:103C2000928045F20841C5F60201884200F08B807F
:103C300045F21C4110E000BF45F26C41C5F602019F
:103C4000884200F0808045F29441C5F60201884226
:103C500000F0798045F28041C5F6020170E000BFB6
:103C6000032D17D8DFE805F00E0B0E02A3F1C0728A
:103C7000B2FA82F2520904E0032D03D30AD1C3F34E
:103C800000623AB140206065012084F8350001B03F
:103C9000F0BD00BF41612046FDF71EF9E16D3F22F6
:103CA00001F01F0102FA01F181602068B8423FF77C
:103CB0007BAF9F21C4F20201884211DC5721C4F27C
:103CC0000201884220DC1021C4F2020188423AD06D
:103CD0002821C4F20201884235D040212EE000BFE5
:103CE00040F22741C4F20201884219DCA021C4F24B
:103CF0000201884227D0B821C4F20201884222D0B2
:103D000040F210411AE000BF5821C4F2020188427B
:103D100019D07021C4F20201884214D088210DE02C
:103D200040F22841C4F2020188420CD040F24041E6
:103D3000C4F20201884206D040F25841C4F20201A6
:103D4000884240F0ED8045F2574C45F6FC0EC5F632
:103D5000020CC5F6020E604512DC45F22F41C5F695
:103D60000201884220DC45F20841C5F60201884282
:103D700034D045F21C41C5F6020188422ED085E0C0
:103D800045F27F41C5F6020188421BDC45F25841ED
:103D9000C5F60201884221D045F26C41C5F6020108
:103DA00088421BD072E000BF45F23041C5F60201E7
:103DB000884213D045F24441C5F6020188420DD035
:103DC00064E000BF45F29441C5F60201884205D087
:103DD00045F28041C5F60201884257D16FF00701D4
:103DE0004CF6CD4251FA80F1CCF6CC42A1FB021246
:103DF000AEF1FC05AEF17C061309A26803F01F01C9
:103E0000802A4FF0010205EB8305256602FA01F2D4
:103E10006666A26602D10021616000E06168CBB2F3
:103E2000013907292B60726016D85E1E082E19D240
:103E300060450EF1440219DC45F22F41C5F602013E
:103E4000884245DC45F20841C5F6020188425DD052
:103E500045F21C414EE000BF00206067C4E91B0032
:103E60005EE000BFD4E91B02616F56E045F27F417E
:103E7000C5F60201884235DC45F25841C5F602011B
:103E8000884243D045F26C4134E000BF6FF00F012F
:103E90004AF6AB2251FA80F1CAF6AA22A1FB02121D
:103EA00040F20F43C4F2020308251109984203F1BE
:103EB000AA060B4688BF05EB121340F60005B04278
:103EC000C4F2020505F1800628BF0B4695E700BF46
:103ED00045F23041C5F60201884217D045F244410F
:103EE00008E000BF45F28041C5F6020188420DD0CE
:103EF00045F29441C5F60201884207D040F6000021
:103F0000C4F2020000F1FC0E00F5A07201210EEBDC
:103F10008300B140E066226761670023036051605F
:103F200000206065012184F8351001B0F0BD00BFAC
:103F30004020D8E500000000B0B500283CD0054680
:103F400090F83400012801D10220B0BD012085F88D
:103F5000340095F83500012828D1022085F8350075
:103F6000002068652868046824F00104046028467D
:103F7000FDF74AF840F20F422868C4F2020240F20C
:103F80006F419042C4F2020118DC6F23C4F20203B5
:103F9000984225DC3F23C4F2020398423CDC102304
:103FA000C4F2020398425ED0282357E04FF4006029
:103FB0006865002085F834000120B0BD88421BDC14
:103FC00040F23F43C4F2020398422DDC40F210431A
:103FD000C4F20203984246D040F228433EE000BFBC
:103FE0009F23C4F20203984228DC7023C4F2020328
:103FF000984238D0882331E040F29F43C4F2020354
:10400000984223DC40F27043C4F2020398422AD063
:1040100040F2884322E000BF4023C4F202039842EA
:1040200021D058231AE000BF40F24043C4F20203FB
:10403000984218D040F2584310E000BFA023C4F2C9
:10404000020398420FD0B82308E000BF40F2B84303
:10405000C4F20203984206D040F2A043C4F2020325
:10406000984240F02F8103680B2464F344030360FB
:104070002B6C1BB1036843F008030360884219DC12
:104080009F23C4F20203984232DC5723C4F2020396
:10409000984259DC1023C4F20203984200F0968043
:1040A0002823C4F20203984200F090804023C4F217
:1040B000020389E045F22F43C5F6020398422DDC46
:1040C00040F2B743C4F2020398424BDC40F2704323
:1040D000C4F20203984279D040F28843C4F202034A
:1040E000984273D040F2A043C4F202036CE000BFD8
:1040F00040F22743C4F20203984243DCA023C4F2F7
:104100000203984262D0B823C4F2020398425DD001
:1041100040F21043C4F2020356E000BF45F26B4385
:10412000C5F6020398423FDC45F23043C5F6020370
:1041300098424BD045F24443C5F60203984245D01D
:1041400045F258433EE000BF5823C4F202039842B0
:104150003CD07023C4F20203984237D08823C4F2C3
:10416000020331E040F2B843C4F2020398422DD07A
:1041700045F20843C5F60203984227D045F21C4396
:1041800020E000BF40F22843C4F2020398421DD051
:1041900040F24043C4F20203984217D040F2584321
:1041A000C4F2020310E000BF45F26C43C5F60203FF
:1041B00098420BD045F29443C5F60203984205D0CD
:1041C00045F28043C5F60203984274D12B6E1C68F9
:1041D000E40303D51C6844F480741C60EB6E1BB1CF
:1041E0001D6845F480751D60904211DC6F21C4F29A
:1041F000020188421EDC3F21C4F20201884235DC04
:104200001021C4F20201884255D0282150E000BF9D
:1042100088421BDC40F23F41C4F2020188422DDC9F
:1042200040F21041C4F20201884244D040F22841D9
:104230003EE000BF9F21C4F20201884228DC7021C9
:10424000C4F20201884236D0882131E040F29F4119
:10425000C4F20201884223DC40F27041C4F2020140
:10426000884228D040F2884122E000BF4021C4F2B9
:10427000020188421FD058211AE000BF40F240419D
:10428000C4F20201884216D040F2584110E000BF4B
:10429000A021C4F2020188420DD0B82108E000BF7D
:1042A00040F2B841C4F20201884204D040F2A04179
:1042B000C4F202018842016841F00101016000205E
:1042C000B0BD00BF0368052464F3430303602B6C97
:1042D000002B3FF4D3AE036843F00403CDE60000A7
:1042E000B0B5044600F024F941F284210546C2F23B
:1042F0000141621C097818BF0C4400BF00F018F996
:10430000401BA042FAD3B0BD2DE9F04F84B00D6838
:10431000002D00F0EF8000F126428E4602F1FF737F
:1043200042F20042C5F602020A2190424FEAB3224D
:1043300008BF0921092A4FF0000438BF4FEAB32112
:10434000012600274FF000080091CDF808E00DE0AD
:10435000DEF8005008F1010835FA06F107F102070E
:1043600006F1010604F1040400F0C480A6F1010A7C
:10437000012101FA0AF315EA0309E9D0DEF804B0D5
:104380000BF003056A1E012A1AD80321D0F808C0D1
:1043900001FA07FE02992CEA0E0CDDF808E0CA6863
:1043A000BA4042EA0C028260CBF30012D0F804C09B
:1043B0002CEA030302FA0AF21A4342600CE000BF3F
:1043C000032D09D1DEF80820012A05D10325BC46BA
:1043D00005FA07F2D1432FE00321C26801FA07F37F
:1043E000022D6FEA030122EA0302DEF808304FEAE9
:1043F000480C03FA07F342EA0302C2601CD10191A0
:104400006FF0030101EA5A0204F01C0502440F2177
:1044100001FA05F3D2F820B002992BEA0303D1F890
:1044200010E001990EFA05F5DDF808E02B43136260
:10443000DEF804B00BF0030502681BF4403F01EA0C
:10444000020105FA0CF241EA020101603FF480AF7B
:1044500044F2F44240F2084CC5F60202C5F6000CE4
:104460000F25116841F002011160116801F002018D
:1044700003912AF00301039A04F00C0251F80C3066
:104480009540AB43009D05FA02F21A4341F80C2017
:104490004FF0B04CDCF80010DEF8042041EA0903CC
:1044A000D50258BF21EA09039502CCF8003040F24A
:1044B000040CC5F6000CDCF8001041EA090358BFF3
:1044C00021EA09039503CCF80030DCF8801041EABA
:1044D000090358BF21EA0903D203CCF88030DCF885
:1044E0007C1041EA090358BF21EA0903CCF87C306B
:1044F0002EE700BF04B0BDE8F08F00000000000010
:104500000069084018BF012070470000000000004B
:10451000002A08BF09048161704700000000000004
:1045200041F20000C5F600400068000C7047000032
:1045300043F6A810C2F20140006870470000000076
:1045400041F2842043F6A811C2F20140C2F20141B7
:1045500000780A68104408607047000000000000FE
:1045600080B5032000F0F8F801F0E6FC44F21841B1
:104570004FF2AC43C5F60201C0F600030A680968B1
:1045800001F00F01C2F30322595C9A5C01F01F0194
:1045900002F01F02D04041F29022C2F2014220FA02
:1045A00001F1116041F28C21C2F2014108600F203B
:1045B00000F00AF800281CBF012080BD00F07CF844
:1045C000002080BD0000000070B541F28426C2F2D8
:1045D00001463178E1B1044641F28C20C2F201403B
:1045E0004FF47A72B2FBF1F10068B0FBF1F001F028
:1045F000DFFF0F2C4FF0010508D838B94FF0FF301E
:1046000000222146002500F077F87460284670BD2E
:10461000012070BD0000000010B54EF6A05E41788C
:10462000CEF2000E90F800C04EF8081CDEF8001024
:1046300021F00101CEF8001041684EF8041C017B06
:10464000C37A827A447B1B0643EA0171837B41EA89
:10465000C241C27B41EA8441447A41EA4341007A43
:1046600041EA024141EA042141EA400040EA0C00EB
:10467000CEF8000010BD00004EF62450CEF200002F
:10468000BFF35F8F016821F4803101600021016771
:1046900070470000000000004EF6245140F0010079
:1046A000CEF200010867086840F480300860BFF36C
:1046B0004F8FBFF36F8F704781B044F2F440C5F65F
:1046C0000200016841F002010160006800F0020090
:1046D0000090009801B07047002848BF704700F074
:1046E0001F01012202FA01F14EF200124009CEF23E
:1046F000000242F82010704770B54EF60C5C4FF087
:10470000FF36CEF2000C00F16045DCF80030C3F358
:10471000022E8EF00703042B28BF0423BEF10304EE
:1047200006FA03F321EA030100F00F0338BF002467
:10473000043BB0F1FF3F634406FA04F003F10C03BD
:1047400001FA04F1C8BF05F5644322EA00000843FA
:104750000001187070BD00004EF60C514FF6FF03BB
:10476000CEF200010A681A4060F30A2242F080602B
:1047700040F0FD7008607047B0B544F60C05C5F612
:10478000020529684907296806D401F00701081ABB
:1047900018BF0120B0BD00BF21F007010843286009
:1047A000FFF7C6FE044600BF55F8080C800407D486
:1047B000FFF7BEFE001BB0F57A7FF5D90120B0BD32
:1047C0000020B0BD0000000080B501F02DFB44F2D8
:1047D00020414FF2AC42C5F60201C0F60002096862
:1047E000C1F30211515C01F01F01C84080BD0000FF
:1047F00080B544F2304EC5F6020E5EF8083C5EF815
:10480000081CC1F3051C5EF8041CBCF1000FDEF8A7
:10481000042017D0C2F3CC0201F00101514303F090
:104820000303022B00EE101AB8EE400A10D0012B41
:1048300012D01BB95EF8301C890611D49FED361AD0
:104840001CE000BF00218160C0E9001180BD00BFF5
:104850009FED301A12E000BF9FED2D1A0EE000BF51
:104860005EF8301C49F20002C0F2D032C1F3C1013F
:1048700022FA01F101EE101AB8EE411ADEF800102A
:104880009FED263A6FF35F2102EE101ADEF800105A
:10489000C1F34621B8EE422A00EE032A00EE10CA08
:1048A000B7EE003AB8EE400A81EE000A32EE031A83
:1048B00002EE101AB8EE422A20EE010A32EE031A76
:1048C00080EE011ABCEEC11A80ED001ADEF800106D
:1048D000C1F3064101EE101AB8EE411A31EE031A87
:1048E00080EE011ABCEEC11A80ED011ADEF800104C
:1048F000C1F3066101EE101AB8EE411A31EE031A47
:1049000080EE010ABCEEC00A10EE101A816080BD74
:104910000024744A20BCBE4B0024744C00000039B3
:1049200080B544F2384EC5F6020E5EF8103C5EF8D3
:10493000101CC1F3053C5EF80C1CBCF1000FDEF846
:10494000042015D0C1F30011C2F3CC02514300EE94
:10495000101A03F003010229B8EE400A0ED089B9FB
:104960005EF8381C890611D49FED361A1CE000BF92
:1049700000218160C0E9001180BD00BF9FED301AA9
:1049800012E000BF9FED2D1A0EE000BF5EF8381C4C
:1049900049F20002C0F2D032C1F3C10122FA01F1A2
:1049A00001EE101AB8EE411ADEF800109FED263A1B
:1049B0006FF35F2102EE101ADEF80010C1F34621FA
:1049C000B8EE422A00EE032A00EE10CAB7EE003A13
:1049D000B8EE400A81EE000A32EE031A02EE101A17
:1049E000B8EE422A20EE010A32EE031A80EE011AD6
:1049F000BCEEC11A80ED001ADEF80010C1F30641CA
:104A000001EE101AB8EE411A31EE031A80EE011AC7
:104A1000BCEEC11A80ED011ADEF80010C1F3066188
:104A200001EE101AB8EE411A31EE031A80EE010AB7
:104A3000BCEEC00A10EE101A816080BD0024744ADA
:104A400020BCBE4B0024744C000000390000000064
:104A500080B544F2404EC5F6020E5EF8183C5EF892
:104A6000181CC1F3055C5EF8141CBCF1000FDEF8E5
:104A7000042015D0C1F30021C2F3CC02514300EE53
:104A8000101A03F003010229B8EE400A0ED089B9CA
:104A90005EF8401C890611D49FED361A1CE000BF59
:104AA00000218160C0E9001180BD00BF9FED301A78
:104AB00012E000BF9FED2D1A0EE000BF5EF8401C13
:104AC00049F20002C0F2D032C1F3C10122FA01F171
:104AD00001EE101AB8EE411ADEF800109FED263AEA
:104AE0006FF35F2102EE101ADEF80010C1F34621C9
:104AF000B8EE422A00EE032A00EE10CAB7EE003AE2
:104B0000B8EE400A81EE000A32EE031A02EE101AE5
:104B1000B8EE422A20EE010A32EE031A80EE011AA4
:104B2000BCEEC11A80ED001ADEF80010C1F3064198
:104B300001EE101AB8EE411A31EE031A80EE011A96
:104B4000BCEEC11A80ED011ADEF80010C1F3066157
:104B500001EE101AB8EE411A31EE031A80EE010A86
:104B6000BCEEC00A10EE101A816080BD0024744AA9
:104B700020BCBE4B0024744C000000390000000033
:104B800010B584B0024641F6FF7300209B1A70EB0B
:104B900001032FDB40F2FF339B1A70EB010355DA60
:104BA00082F480630B4300F0D38082F400630B43F4
:104BB00000F0E88082F48052114340F04F8144F2CB
:104BC0000041C5F60201086DC0F30232042A00F26A
:104BD000228248F20000C0F2BB00DFE812F00500BC
:104BE000410147013F014D010868800140F11382F6
:104BF0000EE100BF47F6FF739B1A70EB010349DA21
:104C000082F400430B4300F0D78082F480330B43DF
:104C100000F0E48082F40022114340F01F8144F24E
:104C20000040C5F60200816D01F44031B1F5003F4E
:104C300000F0F480B1F5803F00F0FE80002940F0E4
:104C4000EA810068000100F18681E4E182F480736A
:104C50000B434BD082F40072114340F0FF8044F2CA
:104C60000041C5F60201086DC0F38212042A00F269
:104C7000D28148F20000C0F2BB00DFE812F005006C
:104C800011011701EF001D010868800140F1C38187
:104C9000BEE000BF82F400530B4343D082F4804255
:104CA000114340F0DB8044F20044C5F60204A06DDD
:104CB000C0F30270052800F2AE81DFE810F00700B3
:104CC0007B017F01830189018B0100BF01F0ACF8FA
:104CD000216A4FF2AC42C0F60002C1F30211515CEE
:104CE00001F01F01C84004B010BD00BF44F20041F4
:104CF000C5F60201086D00F00702042A00F28B815C
:104D000048F20000C0F2BB00DFE812F00600E80045
:104D1000EE00A800F40000BF0868800140F17B812C
:104D200076E000BF44F20040C5F60200016DC1F319
:104D30000241052900F26F81DFE811F006005601FB
:104D400060016A0170014E0001F096F804B010BDD8
:104D500044F20041C5F60201886DC0F34252042AB4
:104D600000F2598148F20000C0F2BB00DFE802F017
:104D700004D4DA76DE0000BF0868800140F14B8180
:104D800046E000BF44F20041C5F60201886DC0F361
:104D90000262042A00F23F8148F20000C0F2BB0028
:104DA000DFE802F004D6E05CEA0000BF086880019A
:104DB00040F131812CE000BF44F20040C5F6020012
:104DC000016D01F04051B1F1005F3FD0B1F1805F62
:104DD0001AD0002940F01F810068FCE044F2004036
:104DE000C5F60200C16C0068C90303D4800140F11C
:104DF00012810DE0000140F10E8101A8FFF790FD46
:104E0000039804B010BD00BF0068800140F1038129
:104E100001A8FFF7EDFC029804B010BDC16C036857
:104E200011F04051026840F0038113F0040300F0D8
:104E3000FF80C2F3C1000AE10068800040F1EB800E
:104E400001A8FFF705FE039804B010BD006800013B
:104E500040F1E18001A8FFF763FD029804B010BDA6
:104E60000868000140F1D78075E000BF0868800045
:104E700040F1D18079E000BFC86C0B6810F040525F
:104E8000086803D113F0040340F0DF80B2F1805FC3
:104E900040F0818010F4807040F0D0807BE000BF53
:104EA0000868000140F1B78055E000BF0868800045
:104EB00040F1B18059E000BFC86C0B6810F040525F
:104EC000086803D113F0040340F0BF80B2F1805FA3
:104ED00061D110F4807040F0B1805CE0086800019E
:104EE00040F1998037E000BF0868800040F193806E
:104EF0003BE000BFC86C0B6810F04052086803D15B
:104F000013F0040340F0A180B2F1805F43D110F4AC
:104F1000807040F093803EE00868000140F17B80A3
:104F200019E000BF0868800075D51EE0C86C0B68EA
:104F300010F04052086803D113F0040340F085805C
:104F4000B2F1805F27D110F4807077D123E000BFE9
:104F5000086800015FD501A8FFF7E2FC019804B0E2
:104F600010BD00BF0868800055D501A8FFF770FD8F
:104F7000019804B010BD00BFC86C0B6810F040521F
:104F8000086802D113F004035FD1B2F1805F02D14F
:104F900010F4807052D1086810F400301CBF47F63E
:104FA0004000C0F27D10B2F1005F18BF002004B0D5
:104FB00010BD00BF206800012DD518E020688000DA
:104FC00029D51EE02068400725D520683DE000BFB8
:104FD000206824E0206847F640018003C0F27D117C
:104FE00001EAE07004B010BD0068000113D501A80B
:104FF000FFF796FC029804B010BD00BF0068800067
:1050000009D501A8FFF724FD029804B010BD00BF28
:105010000168490718D4002004B010BD006840F6AC
:105020000011C005C0F23D0101EAE07004B010BDFE
:10503000B1F1805F14D112F4807211D040F60010EB
:10504000C0F23D0004B010BD0068C0F3C10049F2D9
:105050000001C0F2D03121FA00F004B010BD00BF51
:10506000006810F400301CBF47F64000C0F27D100D
:10507000B1F1005F18BF002004B010BD00000000B7
:105080002DE9F0470446C07844F22C480007C5F6E5
:10509000020833D5A06E4FEA305103290CD8DFE85F
:1050A00001F003111D2600BFD8F8001041F40031B3
:1050B000C8F800101BE000BF01266078C0070BD0C5
:1050C00020E000BF04F10800022102F0E5FD0646E1
:1050D00060B16078C00715D1354646E004F128007C
:1050E000022102F06DFE06460028F2D1A06ED8F82B
:1050F000241021F440110843C8F8240000266078E9
:10510000C007E9D0A06D04280ED83546DFE800F0CE
:105110000412181E1E0000BFD8F80000354640F4E7
:105120000030C8F8000011E00125012760788007F1
:105130001FD452E004F10800002102F0ADFD04E0AC
:1051400004F12800002102F03BFE05462F461DB168
:10515000607880070DD440E0D8F82400A16D20F0DD
:10516000070000250843C8F8240037466078800708
:1051700033D5E06D4FEAB01004280DD8DFE800F019
:105180000412181E1E0000BFD8F8000040F40030C2
:10519000C8F8000012E000BF012501266078400732
:1051A0001FD455E004F10800002102F075FD04E071
:1051B00004F12800002102F003FE05462E461DB131
:1051C000607840070DD443E0D8F82400E16D20F466
:1051D000E07000250843C8F824003E466078400788
:1051E00036D5D4F8A8004FEA705004280CD8DFE870
:1051F00000F00313191F1F00D8F8000040F400301E
:10520000C8F8000014E000BF01254FF001096078E4
:10521000000721D456E000BF04F10800002102F08D
:105220003BFD04E004F12800002102F0C9FD054621
:10523000A9461DB1607800070ED443E0D8F82C00D1
:10524000D4F8A81020F4600000250843C8F82C000A
:10525000B1466078000735D5D4F8AC004FEA30602D
:1052600004280DD8DFE800F00412181E1E0000BF4D
:10527000D8F8000040F40030C8F8000012E000BF89
:1052800001250127E078800720D44EE004F10800D2
:10529000002102F001FD04E004F12800002102F0E9
:1052A0008FFD05462F461DB1E07880070ED43CE007
:1052B000D8F82C00D4F8AC1020F0E06000250843AA
:1052C000C8F82C004F46E07880072ED5E06C4FEAF6
:1052D000301003280ED8DFE800F00903130900BFDF
:1052E000D8F8000040F40030C8F800002E467DB920
:1052F00012E000BF012501266078C00619D44CE0F9
:1053000004F10800022102F0C7FC05462E461DB13B
:105310006078C0060DD440E0D8F82000E16C20F0A1
:10532000300000250843C8F820003E466078C006DB
:1053300033D5206E4FEA303004280DD8DFE800F076
:105340000412181E1E0000BFD8F8000040F4003000
:10535000C8F8000012E000BF012501276078800630
:105360001FD44EE004F10800002102F095FC04E097
:1053700004F12800002102F023FD05462F461DB14F
:10538000607880060DD43CE0D8F82400216E20F42B
:10539000E04000250843C8F82400374660788006BE
:1053A0002FD5606E4FEA3040052809D8DFE800F0BD
:1053B000040E1404040400BF2E46ADB918E000BF6B
:1053C00001250126607840061FD44FE004F1080053
:1053D000012102F061FC04E004F12800012102F047
:1053E000EFFC05462E461DB1607840060DD43DE029
:1053F000D8F82400616E20F4E02000250843C8F8A6
:1054000024003E466078400630D5D4F8B0004FEA1C
:105410003070052808D8DFE800F0030D13030303FC
:105420002F46ADB918E000BF0125012760780006BE
:1054300020D442E004F10800012102F02DFC04E038
:1054400004F12800012102F0BBFC05462F461DB1E6
:10545000607800060ED430E0D8F82C00D4F8B010F4
:1054600020F0E04000250843C8F82C00374660785B
:10547000000622D5206F58B1B0F1005F0CD0B0F11A
:10548000805F2FD1D8F8000040F40030C8F8000049
:105490002E469DB908E000BF04F10800012102F08A
:1054A000FBFB05462E464DB9D8F82400216F20F0AD
:1054B000405000250843C8F824003E46E078C00765
:1054C00033D0A06C032813D8DFE800F008021A08D4
:1054D000D8F8000040F40030C8F80000A946BDB973
:1054E0001AE000BF01250126E078C007E9D11CE0E1
:1054F00001254FF00109A07840061AD51CE000BF35
:1055000004F10800022102F0C7FB0546A9461DB1BF
:10551000A07840060DD50FE0D8F82000A16C20F04F
:10552000030000250843C8F82000B146A0784006D3
:1055300002D44F4618E000BFD8F8D40340F480707E
:10554000C8F8D403FEF7F4FF064600BFD8F8D4032A
:10555000C00507D4FEF7ECFF801B6428F6D90325AD
:10556000032701E02F468DB12078C00761D0E06F9E
:105570004FEAF00005283BD8DFE800F0044046047D
:10558000040400BF002D2E4646D149E0D8F844104F
:10559000D4F8B400414011F4407F11D0D8F8441041
:1055A000D8F8442042F48032C8F84420D8F8442087
:1055B00021F4407122F48032C8F84420C8F8441025
:1055C000B0F5807F40F0E082FEF7B2FF064641F280
:1055D000883A0325032700BFD8F84400800700F16C
:1055E000D182FEF7A5FF801B5045F5D9BCE700BF6F
:1055F00001260125207880071FD44CE004F1080023
:10560000012102F049FB04E004F12800012102F02D
:10561000D7FB05462E461DB1207880070DD43AE011
:10562000D8F82800E16F20F0380000250843C8F8BA
:1056300028003E46207880072DD5A06F052809D880
:10564000DFE800F0040E1404040400BF2F46ADB9D7
:1056500018E000BF01270125207840071FD44DE046
:1056600004F10800012102F017FB04E004F1280016
:10567000012102F0A5FB05462F461DB12078400709
:105680000DD43BE0D8F82800A16F20F007000025DA
:105690000843C8F828003746207840072ED5D4F8AC
:1056A0009400052808D8DFE800F0030D1303030376
:1056B0002E46ADB918E000BF0126012520788006EE
:1056C00020D451E004F10800012102F0E5FA04E0E1
:1056D00004F12800012102F073FB05462E461DB19E
:1056E000207880060ED43FE0D8F82C00D4F894102F
:1056F00020F0070000250843C8F82C003E4620781B
:10570000800631D5D4F890004FEA3070052809D8CA
:10571000DFE800F0040E1404040400BF2F46ADB906
:1057200018E000BF012701252078400620D451E071
:1057300004F10800002102F0AFFA04E004F12800AF
:10574000022102F03DFB05462F461DB120784006A0
:105750000ED43FE0D8F82800D4F8901020F0E040B4
:1057600000250843C8F8280037462078400631D580
:10577000D4F89C004FEAB020052809D8DFE800F0F3
:10578000040E1404040400BF2E46ADB918E000BF97
:10579000012601252078000620D454E004F10800F9
:1057A000002102F079FA04E004F12800022102F05D
:1057B00007FB05462E461DB1207800060ED442E0B8
:1057C000D8F82C00D4F89C1020F4E05000250843B1
:1057D000C8F82C003E462078000634D5D4F8A00046
:1057E0004FEA703005280FD8DFE800F004141A04DF
:1057F000040400BF2F46E5B12068010727D4C10685
:105800003ED4000355D475E0012701252068010727
:10581000F5D51CE004F10800002102F03DFA04E097
:1058200004F12800022102F0CBFA0546002D2F4694
:10583000E2D1D8F82C00D4F8A01020F46040002564
:105840000843C8F82C00374620680107D7D5D4F89C
:105850008410B1F5805F0AD104F12800022102F022
:10586000AFFA002818BF01272068D4F88410D8F8B0
:10587000282022F440521143C8F82810C106C0D590
:10588000D4F89810B1F5807F0AD104F128000221E4
:1058900002F096FA002818BF01272068D4F8981063
:1058A000D8F82C2022F440721143C8F82C100003C1
:1058B00020D5D4F8A400B0F5003F0FD0B0F5803F5C
:1058C00006D078BB04F10800002102F0E5F904E0FD
:1058D00004F12800022102F073FA05462E4655B95C
:1058E000D8F82C00D4F8A41020F440300025084348
:1058F000C8F82C003E46A07840072BD5D4F8880085
:10590000B0F5401F0BD0B0F5001F11D0B0F5801FCF
:105910002AD1D8F8000040F40030C8F800002F4623
:10592000CDB90DE001260125A0784007E6D411E0AD
:1059300004F12800012102F043FA05462F4655B92B
:10594000D8F82800D4F8881020F440100025084327
:10595000C8F828003746A078C0070AD13E4621681B
:10596000880016D533E000BF01270125A078C007C5
:10597000F4D0206DB0F5803F10D018BBD8F80000EF
:1059800040F40030C8F800002E4685B12168880038
:105990001DD460688A0326D46BE000BF04F10800C0
:1059A000022102F079F90546002D2E46EED1D8F8F5
:1059B0002000216D20F4803000250843C8F8200025
:1059C000CCE700BF0126012521688800E1D504F15C
:1059D0002800022102F0F4F9002818BF0126D4E9BA
:1059E00000108A0345D5D4F880206FF0010303EB43
:1059F0003223022B0BD34FEA322343B1012B40F069
:105A0000BB80D8F8003043F40033C8F800304DB301
:105A1000CA0231D4CA0039D48A0242D44A004AD4D4
:105A2000B1F1FF3F57DD09025FD4C10768D181079B
:105A300071D441077BD4010700F18580C10600F1D4
:105A40008E80800607D504F12800022102F0B8F903
:105A5000002818BF0125002D18BF01252846BDE8E4
:105A6000F08700BFD8F8283023F440731A43C8F8F1
:105A700028203546CA02CDD5D8F82420636F22F0FD
:105A800000421A43C8F82420CA00C5D558F81C2C77
:105A9000D4F8B83022F480421A4348F81C2C8A0209
:105AA000BCD5D8F82420E36E22F080721A43C8F8DF
:105AB00024204A00B4D558F81C2C22F4004248F89F
:105AC0001C2CD4F8BC2058F81C3C1A4348F81C2C59
:105AD000B1F1FF3FA7DCD8F82020636D22F04052DF
